:100000000C942A000C9447000C9447000C94470071
:100010000C9447000C9447000C9447000C94470044
:100020000C9447000C9447000C9447000C94470034
:100030000C9447000C946B040C9447000C949404AB
:100040000C9447000C9447000C9447000C94470014
:100050000C94470011241FBECFE5D8E0DEBFCDBF12
:1000600010E0A0E6B0E0EAEBF9E002C005900D92E6
:10007000A436B107D9F720E0A4E6B0E001C01D9294
:10008000A237B207E1F70E94CF010C94DB040C9475
:10009000000081E0809365000895CF93DF93EC0129
:1000A000E0916800F09169008785811104C0CE015C
:1000B0000E942F0410C0813021F4CE010E9411044F
:1000C0000AC00E94EA0381EA0E94F303CE010E9463
:1000D000FA030E94F003DF91CF91089580916C00A4
:1000E000811103C085E080936C0086E690E00E9459
:1000F0004D0081E0809365000895CF93C82FE09173
:100100006800F09169008785811104C08C2F0E94DE
:10011000400410C0813021F48C2F0E940D040AC0CD
:100120000E94EA0380EA0E94F3038C2F0E94F303EB
:100130000E94F003CF910895CF93DF93009709F4C5
:1001400040C0EC018881813041F118F08230A9F182
:100150003AC00E9417048981811107C00E944D0492
:1001600089E490E00E94520415C0813039F40E9465
:100170005C048EE690E00E9461040CC00E944D0475
:1001800089E490E00E9452040E945C048EE690E0B4
:100190000E946104789481E019C08981813049F01E
:1001A00020F0823091F481E011C00E94030481E0CC
:1001B0000DC00E94080481E009C00E94E30381E0B1
:1001C00005C080E003C080E001C080E091E0909332
:1001D0006400DF91CF9108950097B9F020916400F9
:1001E0002223A9F0E8E6F0E0918380831482138251
:1001F0001282FC018089811104C081E08093650036
:1002000008951092650081E0089580E0089580E0EF
:1002100008958F929F92AF92BF92CF92DF92EF920A
:10022000FF920F93CF93DF9380916400811108C0F8
:10023000E0916800F09169008089813009F49AC0EA
:1002400080916500813009F097C01092650080911F
:100250006C00823031F128F4882361F08130A9F0FC
:100260008DC0843009F451C048F1893009F086C04E
:1002700081E085C0C8E6D0E0E881F981808190E026
:100280000E947D0081E08C837AC0C8E6D0E0E881DE
:10029000F981828190E00E947D0082E08C8381E080
:1002A0006EC0C8E6D0E0E881F9818181928199270A
:1002B0000E947D0083E08C8381E061C0C8E6D0E0CD
:1002C000E881F9810380F481E02D8A819B81E80F28
:1002D000F91F808190E00E947D008A819B81E881E6
:1002E000F981218132818217930738F40196909326
:1002F0006B0080936A0081E042C0E8E6F0E0138280
:10030000128284E0848381E03AC0C8E6D0E0E881CC
:10031000F9812581368147815085618572850091FB
:100320006000838594850E94BF04822E932EC401B1
:1003300099270E947D008091600088508093600022
:100340008A819B818730910538F4019690936B00E8
:1003500080936A0081E013C0C8E6D0E01B821A8255
:10036000E881F9810584F685E02D099589E08C8383
:1003700081E005C080E003C080E001C080E0DF9143
:10038000CF910F91FF90EF90DF90CF90BF90AF9003
:100390009F908F90089580E00E9490030895CF93DE
:1003A000DF93CDB7DEB767970FB6F894DEBF0FBE09
:1003B000CDBF0E94080285E498E69A83898381E68E
:1003C00092E69C838B831D821E821F8284E090E0D4
:1003D00099878887CE0101969B878A878AE08C87D8
:1003E0001D861E861F86188A198A1A8A1B8A8BEC1C
:1003F00091E09D8B8C8B1E8A1F8ACE0105960E94F0
:100400009C00CE0107960E94EC000E940901FDCFDE
:1004100020E081C1822F90E0FC01EE0FFF1FE80F6A
:10042000F91FEF59FF4F3181311158C0FC01EE0F18
:10043000FF1FE80FF91FEF59FF4F4081483070F45C
:100440003AB361E070E0FB0102C0EE0FFF1F4A9576
:10045000E2F7AF01409543234ABB95C038EF340F14
:10046000383088F437B350E04850510961E070E00B
:10047000FB0102C0EE0FFF1F4A95E2F7AF01409566
:10048000432347BB80C030EF340F383088F434B397
:1004900050E04051510961E070E0FB0102C0EE0FF5
:1004A000FF1F4A95E2F7AF014095432344BB6BC061
:1004B00038EE340F383008F066C031B350E04851A0
:1004C000510961E070E0FB0102C0EE0FFF1F4A9589
:1004D000E2F7AF014095432341BB55C0313009F0ED
:1004E00052C0FC01EE0FFF1FE80FF91FEF59FF4F3D
:1004F0004081483068F43AB361E070E0FB0102C02B
:10050000EE0FFF1F4A95E2F7AF01432B4ABB3BC0FA
:1005100038EF340F383080F437B350E04850510989
:1005200061E070E0FB0102C0EE0FFF1F4A95E2F7A9
:10053000AF01432B47BB27C030EF340F383080F476
:1005400034B350E04051510961E070E0FB0102C05A
:10055000EE0FFF1F4A95E2F7AF01432B44BB13C0D8
:1005600038EE340F383078F431B350E04851510947
:1005700061E070E0FB0102C0EE0FFF1F4A95E2F759
:10058000AF01432B41BBFC01EE0FFF1FE80FF91F2A
:10059000EF59FF4F3181311160C0FC01EE0FFF1F99
:1005A000E80FF91FEF59FF4F4281411156C0FC017E
:1005B000EE0FFF1F8E0F9F1FFC01EF59FF4F808131
:1005C000883070F43BB341E050E0BA0102C0660FDE
:1005D000771F8A95E2F7CB01809583238BBB9AC066
:1005E00098EF980F983080F438B390E0089741E086
:1005F00050E0FA0102C0EE0FFF1F8A95E2F7CF012B
:100600008095832388BB86C090EF980F983080F444
:1006100035B390E0409741E050E0BA0102C0660F68
:10062000771F8A95E2F7CB018095832385BB72C043
:1006300098EE980F983008F06DC032B390E048976C
:1006400041E050E0FA0102C0EE0FFF1F8A95E2F789
:10065000CF018095832382BB5DC031115BC0FC015B
:10066000EE0FFF1FE80FF91FEF59FF4F32813130B6
:1006700009F050C0FC01EE0FFF1F8E0F9F1FFC0101
:10068000EF59FF4F8081883068F43BB341E050E080
:10069000BA0102C0660F771F8A95E2F7CB01832B60
:1006A0008BBB38C098EF980F983078F438B390E04F
:1006B000089741E050E0FA0102C0EE0FFF1F8A9553
:1006C000E2F7CF01832B88BB25C090EF980F9830BD
:1006D00078F435B390E0409741E050E0BA0102C0B1
:1006E000660F771F8A95E2F7CB01832B85BB12C07B
:1006F00098EE980F983070F432B390E0489741E04C
:1007000050E0FA0102C0EE0FFF1F8A95E2F7CF0119
:10071000832B82BB2F5F222309F47CCE81E00895D6
:1007200090E0FC01EE0FFF1F8E0F9F1FFC01EF59A1
:10073000FF4F8081883068F44BB321E030E0B9018D
:1007400002C0660F771F8A95E2F7CB0184278BBB27
:1007500038C098EF980F983078F448B390E0089735
:1007600021E030E0B90102C0660F771F8A95E2F7F9
:10077000CB01842788BB25C090EF980F983078F480
:1007800045B390E0409721E030E0B90102C0660F28
:10079000771F8A95E2F7CB01842785BB12C098EEBC
:1007A000980F983070F442B390E0489721E030E021
:1007B000B90102C0660F771F8A95E2F7CB01842743
:1007C00082BB81E0089582E080B911B882B984E0EB
:1007D00086BF089584EA86BF06B607FEFDCF08955A
:1007E00084E986BF089583B984E886BF06B607FE0C
:1007F000FDCF089524EC26BF06B607FEFDCF23B13A
:10080000FC01208308950E94080280E58DB90895B7
:100810000E94080280E48DB908958FB9779BFECFBE
:100820000895779BFECF2FB1FC012083089510BC63
:1008300083E389B988E18AB980B5846080BD80B5D9
:10084000826080BD80B58F7D80BD80B58F7E80BD8C
:1008500080B5877F80BD81E0809371000895FC01A1
:1008600080917100882359F091E0909371005F9B13
:1008700004C08CB190E091838083809171000895D1
:10088000982F80917100882339F081E08093710066
:100890005D999CB98091710008958AB180648AB98C
:1008A00081E00895009731F090936E0080936D0081
:1008B00081E0089580E008958AB180688AB981E076
:1008C0000895009731F09093700080936F0081E05D
:1008D000089580E008951F920F920FB60F92112491
:1008E0002F933F934F935F936F937F938F939F9338
:1008F000AF93BF93EF93FF93E0916F00F09170007F
:10090000309709F00995FF91EF91BF91AF919F91B9
:100910008F917F916F915F914F913F912F910F90A8
:100920000FBE0F901F9018951F920F920FB60F9247
:1009300011242F933F934F935F936F937F938F93E4
:100940009F93AF93BF93EF93FF93E0916D00F0916E
:100950006E00309709F00995FF91EF91BF91AF912B
:100960009F918F917F916F915F914F913F912F91C7
:100970000F900FBE0F901F90189597FB10F81694CC
:1009800000080F93083098F00850232F342F452F7C
:10099000562F672F782F892F902DF4CF0594979598
:1009A00087957795679557954795379527950A9534
:0A09B000AAF70F910895F894FFCF05
:0409BA003800010000
:00000001FF
