S00B0000534F532E7372656324
S11300000C942A000C9447000C9447000C9447006D
S11300100C94E2090C946B090C9447000C9440096D
S11300200C9447000C94CF080C94A5080C942E084B
S11300300C9447000C9447000C9447000C94470020
S11300400C9447000C9447000C9447000C94470010
S11300500C94470011241FBECFE5D8E0DEBFCDBF0E
S113006010E0A0E6B0E0E8E5FDE102C005900D92E5
S1130070AA37B107D9F720E0AAE7B0E001C01D9282
S1130080AC3CB207E1F70E9455000C94AA0E0C9404
S1130090000080E00E940101089581E00E940101B6
S11300A0089582E00E9401010895CF93DF93CDB7B4
S11300B0DEB729970FB6F894DEBF0FBECDBF84E03C
S11300C0898389E490E09B838A8382E08C838DE436
S11300D090E09E838D8381E08F8381E590E0998712
S11300E0888780E690E00E94A00083E690E00E946A
S11300F0A00086E690E00E94A000BE016F5F7F4FE3
S113010080E00E94720ABE016C5F7F4F81E00E9412
S1130110720ABE01695F7F4F82E00E94720A81E029
S11301200E94A70A00E117E220E030E040E050E03E
S113013060E070E080E00E94410A0E94D30AFFCF91
S11301400F931F93CF93DF93FC018081803208F0DB
S11301504EC02181223008F04CC09281923008F0C8
S11301604AC0A82FA695A695A695B0E0A459BF4F5E
S1130170AC91B0E06E91877041E050E0EA01082E46
S113018002C0CC0FDD1F0A94E2F730E0890102C0FF
S1130190000F111F8A95E2F7C8019C2F90959623B2
S11301A0892B8C932081A22FA695A695A695B0E0C5
S11301B0A459BF4FAC91B0E03C912770022E02C00D
S11301C0440F551F0A94E2F79281892F90E002C0F0
S11301D0880F991F2A95E2F740954323842B8C932B
S11301E0E081F0E0E658FF4F81E0808305C080E0C5
S11301F003C080E001C080E0DF91CF911F910F9197
S1130200089590E0FC01EE0FFF1FE80FF91FE05A7C
S1130210FF4F2081E22FF0E0E658FF4F308131306C
S1130220C1F5FC01EE0FFF1F8E0F9F1FFC01E05A6A
S1130230FF4F8181813079F5E22FE695E695E695C9
S1130240F0E0E459FF4FE081F0E0DF0112978C9178
S1130250277041E050E0022E02C0440F551F0A945B
S1130260E2F790E084239523022E02C095958795AA
S11302700A94E2F7308199278095909502C0880FFF
S1130280991F2A95E2F740954323842B808381E0CC
S1130290089580E0089580E0089580E090E070C4BF
S11302A0292F30E0F901EE0FFF1FEE0FFF1FEE0FB5
S11302B0FF1FE21BF30BE059FF4F4081433008F06E
S11302C05EC4F901EE0FFF1FEE0FFF1FEE0FFF1FBD
S11302D0E21BF30BE059FF4F5181543008F04FC437
S11302E0F901EE0FFF1FEE0FFF1FEE0FFF1FE21BC2
S11302F0F30BE059FF4F6281663048F0603239F009
S1130300693029F0663019F0673009F038C4F90112
S1130310EE0FFF1FEE0FFF1FEE0FFF1FE21BF30B8D
S1130320E059FF4F7381723008F029C4F901EE0FD0
S1130330FF1FEE0FFF1FEE0FFF1FE21BF30BE05931
S1130340FF4FE481E43008F01AC4F901EE0FFF1FF7
S1130350EE0FFF1FEE0FFF1FE21BF30BE059FF4FE1
S1130360E581E43008F00BC4F901EE0FFF1FEE0F36
S1130370FF1FEE0FFF1FE21BF30BE059FF4FE68157
S1130380E43008F0FCC341111EC1511111C083B700
S11303908F7B83BF83B7877F83BF711104C089B705
S11303A08E7F89BF5FC0789489B7816089BF5AC046
S11303B0513009F046C083B78F7B83BF83B7886011
S11303C083BF87E0829FF001839FF00D1124E059E1
S11303D0FF4F8381811104C089B78D7F89BF04C019
S11303E0789489B7826089BF87E0829FF001839FF8
S11303F0F00D1124E059FF4F8481811107C083B7A8
S11304008F7D83BF83B78F7E83BF2CC0813039F447
S113041083B78F7D83BF83B7806183BF23C082305E
S113042039F483B7806283BF83B78F7E83BF1AC0DA
S11304308330C1F483B7806283BF83B7806183BF95
S113044011C0523039F483B7806483BF83B78860A6
S113045083BF08C0533031F483B7806483BF83B74C
S1130460877F83BFF901EE0FFF1FEE0FFF1FEE0F13
S1130470FF1FE21BF30BE059FF4F828181110BC078
S113048083B78B7F83BF83B78D7F83BF83B78E7F13
S113049083BF81E074C38130B9F483B78B7F83BF9A
S11304A083B78D7F83BF83B7816083BF41E050E012
S11304B060E070E04093C0005093C1006093C200BC
S11304C07093C30081E05BC38230B9F483B78B7F40
S11304D083BF83B7826083BF83B78E7F83BF48E0C7
S11304E050E060E070E04093C0005093C10060931E
S11304F0C2007093C30081E042C38330B9F483B770
S11305008B7F83BF83B7826083BF83B7816083BFE0
S113051040E450E060E070E04093C0005093C100BC
S11305206093C2007093C30081E029C38430B9F49E
S113053083B7846083BF83B78D7F83BF83B78E7F88
S113054083BF40E051E060E070E04093C00050930E
S1130550C1006093C2007093C30081E010C3853072
S1130560B9F483B7846083BF83B78D7F83BF83B7B8
S1130570816083BF40E054E060E070E04093C000DD
S11305805093C1006093C2007093C30081E0F7C22E
S1130590863059F483B7846083BF83B7826083BF96
S11305A083B78E7F83BF81E0EAC2873009F0DEC261
S11305B083B7846083BF83B7826083BF83B781605E
S11305C083BF81E0DCC2413009F0AFC15111B1C039
S11305D061110AC08EB58B7F8EBD8EB58D7F8EBDA9
S11305E08EB58E7F8EBD8FC06130B1F48EB58B7F9A
S11305F08EBD8EB58D7F8EBD8EB581608EBD41E082
S113060050E060E070E04093C0005093C1006093FC
S1130610C2007093C30077C06230B1F48EB58B7F93
S11306208EBD8EB582608EBD8EB58E7F8EBD48E048
S113063050E060E070E04093C0005093C1006093CC
S1130640C2007093C3005FC06330B1F48EB58B7F7A
S11306508EBD8EB582608EBD8EB581608EBD40E448
S113066050E060E070E04093C0005093C10060939C
S1130670C2007093C30047C06430B1F48EB5846087
S11306808EBD8EB58D7F8EBD8EB58E7F8EBD40E0C6
S113069051E060E070E04093C0005093C10060936B
S11306A0C2007093C3002FC06530B1F48EB584606E
S11306B08EBD8EB58D7F8EBD8EB581608EBD40E0C2
S11306C054E060E070E04093C0005093C100609338
S11306D0C2007093C30017C0663051F48EB58460B5
S11306E08EBD8EB582608EBD8EB58E7F8EBD0BC0E5
S11306F0673049F48EB584608EBD8EB582608EBD40
S11307008EB581608EBD87E0829FF001839FF00DDE
S11307101124E059FF4F8381811105C089B78B7F74
S113072089BF81E02CC2789489B7846089BF81E055
S113073026C2513009F01CC2711104C089B78F7EE2
S113074089BF06C0713021F4789489B7806189BF6C
S113075087E0829FF001839FF00D1124E059FF4F41
S1130760828181110AC08EB58B7F8EBD8EB58D7F3F
S11307708EBD8EB58E7F8EBD8FC08130B1F48EB5A7
S11307808B7F8EBD8EB58D7F8EBD8EB581608EBD07
S113079041E050E060E070E04093C0005093C1003D
S11307A06093C2007093C30077C08230B1F48EB5F9
S11307B08B7F8EBD8EB582608EBD8EB58E7F8EBDD5
S11307C048E050E060E070E04093C0005093C10006
S11307D06093C2007093C3005FC08330B1F48EB5E0
S11307E08B7F8EBD8EB582608EBD8EB581608EBDD1
S11307F040E450E060E070E04093C0005093C100DA
S11308006093C2007093C30047C08430B1F48EB5C6
S113081084608EBD8EB58D7F8EBD8EB58E7F8EBD70
S113082040E051E060E070E04093C0005093C100AC
S11308306093C2007093C3002FC08530B1F48EB5AD
S113084084608EBD8EB58D7F8EBD8EB581608EBD6C
S113085040E054E060E070E04093C0005093C10079
S11308606093C2007093C30017C0863051F48EB5F4
S113087084608EBD8EB582608EBD8EB58E7F8EBD3A
S11308800BC0873049F48EB584608EBD8EB582600E
S11308908EBD8EB581608EBD87E0829FF001839FFF
S11308A0F00D1124E059FF4F858181110DC08FB5E2
S11308B08F778FBD8FB58F7B8FBD8FB58F7D8FBDAC
S11308C08FB58F7E8FBD2CC0813069F48FB58F7743
S11308D08FBD8FB580648FBD8FB58F7D8FBD8FB574
S11308E080618FBD1DC0823069F48FB580688FBD73
S11308F08FB58F7B8FBD8FB580628FBD8FB58F7E97
S11309008FBD0EC0833061F48FB580688FBD8FB505
S113091080648FBD8FB580628FBD8FB580618FBDC0
S11309208EB588608EBD81E02AC1423009F022C1B3
S113093061110AC085B58B7F85BD85B58D7F85BD69
S113094085B58E7F85BDA7C06130B1F485B58B7F39
S113095085BD85B58D7F85BD85B5816085BD41E04B
S113096050E060E070E04093C0005093C100609399
S1130970C2007093C3008FC06230B1F485B58B7F21
S113098085BD85B5826085BD85B58E7F85BD48E012
S113099050E060E070E04093C0005093C100609369
S11309A0C2007093C30077C06830B1F485B58B7F03
S11309B085BD85B5826085BD85B5816085BD40E214
S11309C050E060E070E04093C0005093C100609339
S11309D0C2007093C3005FC06330B1F485B5846016
S11309E085BD85B58D7F85BD85B58E7F85BD40E48C
S11309F050E060E070E04093C0005093C100609309
S1130A00C2007093C30047C06930B1F485B58460F7
S1130A1085BD85B58D7F85BD85B5816085BD40E883
S1130A2050E060E070E04093C0005093C1006093D8
S1130A30C2007093C3002FC06430B1F485B58460E4
S1130A4085BD85B5826085BD85B58E7F85BD40E059
S1130A5051E060E070E04093C0005093C1006093A7
S1130A60C2007093C30017C06530A9F485B58460D3
S1130A7085BD85B5826085BD85B5816085BD40E055
S1130A8054E060E070E04093C0005093C100609374
S1130A90C2007093C30087E0829FF001839FF00D32
S1130AA01124E059FF4F8181811116C087E0829F94
S1130AB0F001839FF00D1124E059FF4F83818111D0
S1130AC005C089B78F7B89BF81E059C0789489B705
S1130AD0806489BF81E053C0813009F04DC085B581
S1130AE0886085BD87E0829FF001839FF00D11240B
S1130AF0E059FF4F8381811104C089B78F7789BF83
S1130B0004C0789489B7806889BF87E0829FF00128
S1130B10839FF00D1124E059FF4F8681811108C095
S1130B2085B58F7D85BD85B58F7E85BD81E027C068
S1130B30813041F485B58F7D85BD85B5806185BDE6
S1130B4081E01DC0823041F485B5806285BD85B5E4
S1130B508F7E85BD81E013C0833081F485B58062CA
S1130B6085BD85B5806185BD81E009C081E007C090
S1130B7081E005C081E003C081E001C081E09F5FA6
S1130B80992309F48DCB08952F923F924F925F924F
S1130B906F927F928F929F92AF92BF92CF92DF9289
S1130BA0EF92FF920F931F93CF93DF93CDB7DEB7EE
S1130BB069970FB6F894DEBF0FBECDBF90E0FC017D
S1130BC0EE0FFF1FEE0FFF1FEE0FFF1FE81BF90BC9
S1130BD0E059FF4FA080A98AAA2DA33008F018C2BB
S1130BE0FC01EE0FFF1FEE0FFF1FEE0FFF1FE81BB0
S1130BF0F90BE059FF4FB181BA8BB43008F00AC247
S1130C00FC01EE0FFF1FEE0FFF1FEE0FFF1FE81B8F
S1130C10F90BE059FF4FE281E63048F0E03239F059
S1130C20E93029F0E63019F0E73009F0F5C1FC01AC
S1130C30EE0FFF1FEE0FFF1FEE0FFF1FE81BF90B58
S1130C40E059FF4FE381E23008F0E8C1FC01EE0F08
S1130C50FF1FEE0FFF1FEE0FFF1FE81BF90BE059FC
S1130C60FF4FE481E43008F0DBC1FC01EE0FFF1F0D
S1130C70EE0FFF1FEE0FFF1FE81BF90BE059FF4FAC
S1130C80E581E43008F0CEC1FC01EE0FFF1FEE0F4A
S1130C90FF1FEE0FFF1FE81BF90BE059FF4F868182
S1130CA0843008F0C1C147017E836D835C834B832C
S1130CB0332E222E1A830983302F0093BC00109305
S1130CC0BD002092BE003092BF00A12C0F2EF2E195
S1130CD0BF2EF02D0F2EFAE7CF2EF02DD12CE12CC4
S1130CE0F12C00E010E0232F3A81422D532D6B812B
S1130CF07C818D819E810E94CB0D2B873C874D8703
S1130D005E87F62FE72F8F87988B4090C000509016
S1130D10C1006090C2007090C300A301920160E41E
S1130D2072E48FE090E00E948E0D6F83788789874C
S1130D309A878B019C01A02EB12EC22ED32E00E0E7
S1130D4010E02B853C854D855E856F2F7E2F8F852A
S1130D5098890E94260E0E94690C6B017C016093A5
S1130D60C4007093C5008093C6009093C700E989BE
S1130D70E11183C0AA88A11054C020E030E040E80B
S1130D8053E40E94F80C88239CF020E030E040E813
S1130D905BE3C701B6010E94FD0C0E94FD0B60934A
S1130DA0C8007093C9008093CA009093CB002AC1F5
S1130DB0C301B20120E032E14AE750E00E949E0DF7
S1130DC0942F832F722F66270E942C0C6B017C01B9
S1130DD029813A81422D532D6B817C818D819E81A5
S1130DE00E94690C2B013C0120E034E244E759E401
S1130DF0C701B6010E94FD0C9B01AC01C301B20105
S1130E000E948B0B9B01AC0160E070E08FE793E4E0
S1130E100E941E0B0E94FD0B62BF81E08093A7001D
S1130E20F1C00A89013009F0EDC060E072E18AE79F
S1130E3090E02F81388549855A850E949E0D59017D
S1130E406A01E12CF12C87012A8BBB8ACC8ADD8ACA
S1130E50EE8AFF8A088F198FE12CF12C00E010E054
S1130E6029813A81422D532D6B817C818D819E8114
S1130E700E94260E2CBF12BEC5C009890130D9F5C7
S1130E801A8911112BC020E030E040E857E40E9499
S1130E90F80C88239CF020E030E040E857E3C701D9
S1130EA0B6010E94FD0C0E94FD0B6093C800709374
S1130EB0C9008093CA009093CB00A4C0A7019601F7
S1130EC060E07FEF8FE797E40E941E0B0E94FD0B0A
S1130ED07DBD6CBD81E08093A60094C08A89813079
S1130EE009F090C0C701B6010E94FD0B7BBD6ABD2D
S1130EF01DBC1CBC87C09989923009F083C0AA89A3
S1130F00A11156C020E030E040E853E4C701B60127
S1130F100E94F80C88239CF020E030E040E85BE37A
S1130F20C701B6010E94FD0C0E94FD0B6093C8002E
S1130F307093C9008093CA009093CB0063C0C3012F
S1130F40B20120E032E14AE750E00E949E0D942F66
S1130F50832F722F66270E942C0C6B017C01298140
S1130F603A81422D532D6B817C818D819E810E941B
S1130F70690C2B013C0120E034E244E759E4C70149
S1130F80B6010E94FD0C9B01AC01C301B2010E9499
S1130F908B0B9B01AC0160E070E08FE793E40E944F
S1130FA01E0B0E94FD0B64BD81E08093A5002AC046
S1130FB0BA89B13039F560E072E18AE790E02F81B7
S1130FC0388549855A850E949E0D59016A01E12C94
S1130FD0F12C87012A8BBB8ACC8ADD8AEE8AFF8AB0
S1130FE0088F198FE12CF12C00E010E029813A815F
S1130FF0422D532D6B817C818D819E810E94260E12
S113100023BD14BC9092A9008092A80081E00DC079
S113101080E00BC080E009C080E007C080E005C02C
S113102080E003C080E001C080E069960FB6F894C8
S1131030DEBF0FBECDBFDF91CF911F910F91FF9007
S1131040EF90DF90CF90BF90AF909F908F907F9064
S11310506F905F904F903F902F9008951F920F9242
S11310600FB60F9211242F933F934F935F936F9377
S11310707F938F939F93AF93BF93EF93FF93E091ED
S1131080A800F091A900309709F44EC08091A70000
S1131090811130C08091A1009091A200A091A30081
S11310A0B091A4004091C8005091C9006091CA0059
S11310B07091CB0084179507A607B70779F41092AF
S11310C0A1001092A2001092A3001092A40012BEDC
S11310D0E091A800F091A900099526C00196A11DF0
S11310E0B11D8093A1009093A200A093A300B0939C
S11310F0A4001AC0099520E030E040E853E4609170
S1131100C4007091C5008091C6009091C7000E94F0
S1131110FD0C9B01AC0160E070E080E893E40E9468
S11311201E0B0E94FD0B62BFFF91EF91BF91AF9127
S11311309F918F917F916F915F914F913F912F91EB
S11311400F900FBE0F901F9018951F920F920FB61D
S11311500F9211242F933F934F935F936F937F9339
S11311608F939F93AF93BF93EF93FF93E091A80066
S1131170F091A900309711F0099512BEFF91EF91FB
S1131180BF91AF919F918F917F916F915F914F919B
S11311903F912F910F900FBE0F901F9018951F92A3
S11311A00F920FB60F9211242F933F934F935F9397
S11311B06F937F938F939F93AF93BF93EF93FF931B
S11311C0E091A800F091A900309709F448C08091FB
S11311D0A600811131C080919D0090919E00A09144
S11311E09F00B091A0004091C8005091C900609147
S11311F0CA007091CB0084179507A607B70781F43E
S113120010929D0010929E0010929F001092A000D8
S11312101DBC1CBCE091A800F091A90009951FC059
S11312200196A11DB11D80939D0090939E00A093F3
S11312309F00B093A00013C009952091C400309181
S1131240C5004091C6005091C70060E07FEF8FE772
S113125097E40E941E0B0E94FD0B7DBD6CBDFF91A7
S1131260EF91BF91AF919F918F917F916F915F911A
S11312704F913F912F910F900FBE0F901F90189593
S11312801F920F920FB60F9211242F933F934F93F7
S11312905F936F937F938F939F93AF93BF93EF93DA
S11312A0FF93E091A800F091A900309719F00995F7
S11312B01DBC1CBCFF91EF91BF91AF919F918F9189
S11312C07F916F915F914F913F912F910F900FBE3E
S11312D00F901F9018951F920F920FB60F92112422
S11312E02F933F934F935F936F937F938F939F932A
S11312F0AF93BF93EF93FF93E091A800F091A900FF
S1131300309709F44EC08091A500811130C08091BE
S1131310990090919A00A0919B00B0919C004091FB
S1131320C8005091C9006091CA007091CB00841725
S11313309507A607B70779F41092990010929A00BE
S113134010929B0010929C0014BCE091A800F091B4
S1131350A900099526C00196A11DB11D809399008D
S113136090939A00A0939B00B0939C001AC0099597
S113137020E030E040E853E46091C4007091C5007F
S11313808091C6009091C7000E94FD0C9B01AC01A6
S113139060E070E080E893E40E941E0B0E94FD0B65
S11313A064BDFF91EF91BF91AF919F918F917F9118
S11313B06F915F914F913F912F910F900FBE0F90BE
S11313C01F9018951F920F920FB60F9211242F930E
S11313D03F934F935F936F937F938F939F93AF93B9
S11313E0BF93EF93FF93E091A800F091A900309789
S11313F011F0099514BCFF91EF91BF91AF919F91AA
S11314008F917F916F915F914F913F912F910F90A9
S11314100FBE0F901F901895FC012081211106C06A
S113142081819281892B21F080E0089580E00895E4
S113143081E008952091AB003091AC004091AD0063
S11314405091AE006091AF007091B0008091B100F6
S11314509091B200A1E00E94830E2093AB003093E0
S1131460AC004093AD005093AE006093AF00709316
S1131470B0008093B1009093B20081E08093AA0001
S113148008959F92AF92BF92CF92DF92EF92FF9214
S11314900F931F93CF93DF93C82F922EA32EB42EB6
S11314A0C52ED62ED72F0E944D01813079F40F2EF0
S11314B0FAE1EF2EFAE0FF2EF02D292D3A2D4B2DD7
S11314C05C2D6D2D7D2F8C2F0E94C405DF91CF9153
S11314D01F910F91FF90EF90DF90CF90BF90AF904E
S11314E09F900895FF920F931F93CF93DF93F82E4D
S11314F08B01C82FD0E0CE01880F991F8C0F9D1F40
S11315008D549F4F0E940C0A8130B1F482E08F15F4
S1131510A8F001151105A1F0CE01880F991FC80F7D
S1131520D91FCD54DF4FF80180819181A281888336
S11315309983AA8381E005C080E003C080E001C0F4
S113154080E0DF91CF911F910F91FF9008951F9339
S1131550CF93DF93182FC82FD0E0CE01880F991FA7
S11315608C0F9D1F8D549F4F0E940C0A8130A1F057
S11315701330A0F4CE01880F991FC80FD91FCD5482
S1131580DF4F8091770090917800A0917900888353
S11315909983AA8381E003C080E001C080E0DF91E9
S11315A0CF911F9108958091AA008130E1F73EC048
S11315B0C92DD0E0CE01880F991F8C0F9D1F8D542B
S11315C09F4F0E940C0A813079F1FE01EE0FFF1F3C
S11315D0EC0FFD1FED54FF4FA0802091AB00309124
S11315E0AC004091AD005091AE006091AF0070919D
S11315F0B000B12CC12CD12CE12CF12C00E010E076
S11316008091B1009091B2000E94240EA0E00E944B
S11316108F0E51F4CE01880F991FC80FD91FCD54D6
S1131620DF4FE981FA810995939401C0912C82E0FE
S1131630891508F0BDCF1092AA00B5CF5058BB272A
S1131640AA270E94360B0C94BE0C0E94B00C38F0F2
S11316500E94B70C20F039F49F3F19F426F40C943F
S1131660AD0C0EF4E095E7FB0C94A70CE92F0E9457
S1131670CF0C58F3BA17620773078407950720F055
S113168079F4A6F50C94F10C0EF4E0950B2EBA2F18
S1131690A02D0B01B90190010C01CA01A001112474
S11316A0FF27591B99F0593F50F4503E68F11A1620
S11316B0F040A22F232F342F4427585FF3CF4695B1
S11316C037952795A795F0405395C9F77EF41F16D3
S11316D0BA0B620B730B840BBAF09150A1F0FF0F9D
S11316E0BB1F661F771F881FC2F70EC0BA0F621F89
S11316F0731F841F48F4879577956795B795F79579
S11317009E3F08F0B0CF9395880F08F09927EE0F0D
S11317109795879508950E949F0B0C94BE0C0E9488
S1131720B70C58F00E94B00C40F029F45F3F29F048
S11317300C94A70C51110C94F20C0C94AD0C0E9457
S1131740CF0C68F39923B1F3552391F3951B550BF3
S1131750BB27AA2762177307840738F09F5F5F4F80
S1131760220F331F441FAA1FA9F335D00E2E3AF0BF
S1131770E0E832D091505040E695001CCAF72BD0D7
S1131780FE2F29D0660F771F881FBB1F2617370728
S11317904807AB07B0E809F0BB0B802DBF01FF275A
S11317A093585F4F3AF09E3F510578F00C94A70C84
S11317B00C94F20C5F3FE4F3983ED4F3869577954E
S11317C06795B795F7959F5FC9F7880F911D969513
S11317D0879597F90895E1E0660F771F881FBB1F6F
S11317E0621773078407BA0720F0621B730B840B1C
S11317F0BA0BEE1F88F7E09508950E94D70C88F085
S11318009F5798F0B92F9927B751B0F0E1F0660FC0
S1131810771F881F991F1AF0BA95C9F714C0B13001
S113182091F00E94F10CB1E008950C94F10C672F33
S1131830782F8827B85F39F0B93FCCF38695779530
S11318406795B395D9F73EF4909580957095619519
S11318507F4F8F4F9F4F0895E89409C097FB3EF444
S113186090958095709561957F4F8F4F9F4F9923E9
S1131870A9F0F92F96E9BB279395F6958795779567
S11318806795B795F111F8CFFAF4BB0F11F460FF27
S11318901BC06F5F7F4F8F4F9F4F16C0882311F07F
S11318A096E911C0772321F09EE8872F762F05C093
S11318B0662371F096E8862F70E060E02AF09A952E
S11318C0660F771F881FDAF7880F9695879597F923
S11318D00895E894F92F96EBFF2381F0121613066E
S11318E01406440B9395F6958795779567955795C8
S11318F04040FF23B9F71BC099270895882351F46A
S11319009850D2F7872B762F652F542F432F322FE1
S113191020E0B1F3121613061406440B88233AF0A0
S11319209A95440F551F661F771F881FCAF75523C2
S11319304AF4440F551F11F460FF04C06F5F7F4FDA
S11319408F4F9F4F880F9695879597F9089597F92C
S11319509F6780E870E060E008959FEF80EC089551
S113196000240A941616170618060906089500247A
S11319700A9412161306140605060895092E0394F4
S1131980000C11F4882352F0BB0F40F4BF2B11F468
S113199060FF04C06F5F7F4F8F4F9F4F089557FDC7
S11319A09058440F551F59F05F3F71F04795880FC9
S11319B097FB991F61F09F3F79F087950895121660
S11319C013061406551FF2CF4695F1DF08C016160C
S11319D017061806991FF1CF8695710561050894BD
S11319E00895E894BB2766277727CB0197F90895D4
S11319F00E946A0D08F48FEF08950E94100D0C9454
S1131A00BE0C0E94B00C38F00E94B70C20F0952355
S1131A1011F00C94A70C0C94AD0C11240C94F20C42
S1131A200E94CF0C70F3959FC1F3950F50E0551FA2
S1131A30629FF001729FBB27F00DB11D639FAA271F
S1131A40F00DB11DAA1F649F6627B00DA11D661F6E
S1131A50829F2227B00DA11D621F739FB00DA11D8F
S1131A60621F839FA00D611D221F749F3327A00D49
S1131A70611D231F849F600D211D822F762F6A2FE5
S1131A8011249F5750409AF0F1F088234AF0EE0F4A
S1131A90FF1FBB1F661F771F881F91505040A9F777
S1131AA09E3F510580F00C94A70C0C94F20C5F3F00
S1131AB0E4F3983ED4F3869577956795B795F795B3
S1131AC0E7959F5FC1F7FE2B880F911D969587952B
S1131AD097F90895990F0008550FAA0BE0E8FEEF57
S1131AE016161706E807F907C0F012161306E407DE
S1131AF0F50798F0621B730B840B950B39F40A26D7
S1131B0061F0232B242B252B21F408950A2609F4B4
S1131B10A140A6958FEF811D811D0895DB018F9350
S1131B209F930E94C00DBF91AF91A29F800D911D04
S1131B30A39F900DB29F900D11240895A1E21A2E37
S1131B40AA1BBB1BFD010DC0AA1FBB1FEE1FFF1F5D
S1131B50A217B307E407F50720F0A21BB30BE40BAD
S1131B60F50B661F771F881F991F1A9469F76095F4
S1131B707095809590959B01AC01BD01CF010895AE
S1131B800E949B0EA59F900DB49F900DA49F800D65
S1131B90911D11240895DF93CF931F930F939A9D62
S1131BA0F02D219FF00D8B9DF00D8A9DE02DF10D00
S1131BB0039FF00D029FE00DF11D4E9DE00DF11D00
S1131BC05E9DF00D4F9DF00D7F936F93BF92AF928A
S1131BD05F934F93D5010E949B0E8B01AC01D701FB
S1131BE00E949B0EEB01E80FF91FD6010E941B0E09
S1131BF02F913F91D6010E949B0EC60FD71FE81F5D
S1131C00F91FAF91BF910E941B0E2F913F910E942B
S1131C109B0EC60FD71FE81FF91FD6010E949B0E0B
S1131C20E60FF71F9801BE01CF0111240F911F91F8
S1131C30CF91DF9108950E949B0E460F571FC81F36
S1131C40D91F08F431960895689401C0E8948F92DE
S1131C509F92CF93DF930E94320EDF91CF919F909A
S1131C608F90089588249924F401E401B0E49F93AB
S1131C70AA279A158B049C04ED05FE05CF05D00711
S1131C80A10798F4AD2FDC2FCF2FFE2FE92D982C30
S1131C90892E982F872F762F652F542F432F322F7D
S1131CA02227B85031F7BF9127C01B2EBF91BB2705
S1131CB0220F331F441F551F661F771F881F991F4C
S1131CC0881C991CEE1FFF1FCC1FDD1FAA1FBB1F02
S1131CD08A149B04EC05FD05CE05DF05A007B107BA
S1131CE048F08A189B08EC09FD09CE09DF09A00B0E
S1131CF0B10B21601A94E1F62EF49401AF01BE01F8
S1131D00CD01000C08950024A7FD00942A0F301D76
S1131D10401D501D601D701D801D901D08950024E0
S1131D20A7FD00942A17300540055005600570058D
S1131D30800590050895A29FB001B39FC001A39FA1
S1131D40700D811D1124911DB29F700D811D1124F0
S10B1D50911D0895F894FFCFE2
S1131D580001000101000201000301003B38353293
S10D1D680100050100000000000066
S9030000FC
