:100000000C942A000C941E150C9445150C946C1538
:100010000C9447000C94D9110C9447000C944700A1
:100020000C9447000C949D110C9447000C94C6103E
:100030000C9447000C9447000C9447000C94470024
:100040000C9447000C9447000C9447000C94470014
:100050000C94470011241FBECFE5D8E0DEBFCDBF12
:1000600011E0A0E6B0E0E0E4F0E402C005900D92FB
:10007000A63DB107D9F712E0A6EDB1E001C01D928F
:10008000AC34B107E1F70E945C1F0C941E200C9465
:100090000000A0E3B0E0EFE4F0E00C94A21FA8E0C1
:1000A0004E010894811C911CF401BA2F1192BA954B
:1000B000E9F729833A834B835C836D837E838F8347
:1000C0009887CE010996FC011192AA95E9F7A986B5
:1000D000BA86CB86DC86ED86FE860F87188B298153
:1000E0003A814B815C812DA73EA74FA758AB790180
:1000F0008A018FEF9FEFA0E0B0E0E822F9220A2307
:100100001B231A014424552429853A854B855C8597
:1001100029A73AA74BA75CA759016A01A822B922CF
:10012000CA22DB223A0188249924C601B501A8011C
:1001300097010E94611F6DA37EA38FA398A7C4019E
:10014000B3010E94611F69A37AA38BA39CA3C6017C
:10015000B501A20191010E94611F7B018C01C401C4
:10016000B3010E94611F5B016C0189A19AA1ABA13F
:10017000BCA18E0D9F1DA01FB11F89A39AA3ABA385
:10018000BCA32DA13EA14FA158A5CA01AA27BB27F8
:1001900029A13AA14BA15CA1280F391F4A1F5B1F5F
:1001A00029A33AA34BA35CA32E153F054007510793
:1001B00040F480E090E0A1E0B0E0A80EB91ECA1EB5
:1001C000DB1E89A19AA1ABA1BCA19D0144275527A3
:1001D0002A0D3B1D4C1D5D1D2D8F3E8F4F8F58A34B
:1001E0006C01BB24AA248DA19EA1AFA1B8A5A070CB
:1001F000B070A80EB91ECA1EDB1EA98EBA8ECB8E99
:10020000DC8E9A8C8B8C7C8C9E8D6F8D78A1FE0100
:10021000719688E0DF011D928A95E9F72D8B9E8B00
:100220006F8B788F2D853E854F8558896DA57EA56E
:100230008FA598A90E94611F7B018C012D813E81B1
:100240004F81588569A57AA58BA59CA50E94611F41
:10025000E60EF71E081F191F6D897E898F89988DFC
:100260006E0D7F1D801F911F6D8B7E8B8F8B988FE6
:10027000EE892A2D392D482D572D7E2F8F89988D67
:10028000E096E2E10C94BE1FEF92FF920F93DF9392
:10029000CF93CDB7DEB760970FB6F894DEBF0FBE31
:1002A000CDBFA82F002309F461C07E010894E11C92
:1002B000F11C88E0F70111928A95E9F729833A83C6
:1002C0004B835C836D837E83AF83988780E2801B42
:1002D000E82FFF27E7FDF09549815A816B817C81EA
:1002E000181684F019861A861B861C86882799277B
:1002F0008E1B9F0B04C0440F551F661F771F8A95E6
:10030000D2F728C0202F332727FD3095DB01CA0103
:10031000022E04C0880F991FAA1FBB1F0A94D2F790
:1003200089879A87AB87BC8704C076956795579570
:100330004795EA95D2F78D819E81AF81B88504C03B
:10034000880F991FAA1FBB1F2A95D2F7482B592B3C
:100350006A2B7B2B4D875E876F87788B29853A8543
:100360004B855C856D857E85AF8598898A2F6096E3
:100370000FB6F894DEBF0FBECDBFCF91DF910F91C6
:10038000FF90EF900895AEE5B0E0E9ECF1E00C9459
:10039000A21FA8E04E010894811C911CF4016A2E52
:1003A00011926A94E9F729833A834B835C836D83C6
:1003B0007E838F839887CE010996FC011192AA95BE
:1003C000E9F7A986BA86CB86DC86ED86FE860F879E
:1003D000188B29843A844B845C84ED84FE840F85D9
:1003E000188969807A808B809C806DA67EA68FA6F6
:1003F00098AA6D807E808F809884E114F1040105B5
:10040000110509F0B3C3621473048404950408F061
:100410003DC100E0201600E0300601E0400600E0AB
:10042000500688F41FEF211631044104510439F0BD
:1004300030F048E0E42EF12C012D112D18C0EE24EF
:10044000FF24870114C020E0221620E0320620E0BD
:10045000420621E0520630F038E1E32EF12C012D66
:10046000112D05C020E1E22EF12C012D112DD2011C
:10047000C1010E2C04C0B695A795979587950A944F
:10048000D2F78B589F4FDC012C9180E290E0A0E0E6
:10049000B0E08E199F09A00BB10B7C018D01E21A0F
:1004A000F10801091109E114F10401051105A1F197
:1004B0000E2C04C0220C331C441C551C0A94D2F789
:1004C000A40193010E2C04C0220F331F441F551F9B
:1004D0000A94D2F780E290E08E199F096DA47EA461
:1004E0008FA498A804C096948794779467948A956B
:1004F000D2F7622A732A842A952AADA4BEA4CFA477
:10050000D8A804C0AA0CBB1CCC1CDD1CEA94D2F7F2
:10051000ADA6BEA6CFA6D8AA6201EE24FF24CDAA1E
:10052000DEAAEFAAF8AE920181012070307009AF07
:100530001AAF2BAF3CAFC401B301A70196010E94D3
:10054000801F7B018C01C401B3012DA93EA94FA9D5
:1005500058AD0E94801FC901DA013C014D01C40160
:10056000B30129AD3AAD4BAD5CAD0E94611F9B015B
:10057000AC018701FF24EE24ADA4BEA4CFA4D8A86B
:10058000C601AA27BB2757016801A82AB92ACA2A87
:10059000DB2AA216B306C406D506E0F40894610867
:1005A000710881089108A20CB31CC41CD51CA214AC
:1005B000B304C404D50470F0A216B306C406D5066D
:1005C00048F408946108710881089108A20CB31CD2
:1005D000C41CD51CA21AB30AC40AD50AC601B501A7
:1005E0002DA93EA94FA958AD0E94801F7B018C0107
:1005F000C601B5012DA93EA94FA958AD0E94801F83
:10060000C901DA015C016D01C601B50129AD3AAD40
:100610004BAD5CAD0E94611F9B01AC018701FF24C3
:10062000EE248DA59EA5AFA5B8A9A070B070E82A4C
:10063000F92A0A2B1B2BE216F30604071507C0F450
:100640000894A108B108C108D108E20CF31C041DEC
:10065000151DE214F3040405150550F0E216F30627
:100660000407150728F40894A108B108C108D108A7
:10067000D3019927882786017501E82AF92A0A2BD0
:100680001B2BE9AAFAAA0BAB1CABCFC42114310473
:100690004104510471F461E070E080E090E020E0FA
:1006A00030E040E050E00E94801FC901DA011C01E7
:1006B0002D0100E0201600E0300601E0400600E0D9
:1006C000500688F41FEF211631044104510431F023
:1006D00028F048E050E060E070E017C040E050E0F3
:1006E00060E070E012C020E0221620E0320620E038
:1006F000420621E0520628F048E150E060E070E058
:1007000004C040E150E060E070E0D201C101042E7D
:1007100004C0B695A795979587950A94D2F78B58FC
:100720009F4FDC012C91E0E2EE2EF12C012D112DDA
:10073000D801C701841B950BA60BB70B821B91092F
:10074000A109B1090097A105B10561F46401530144
:10075000A218B308C408D50831E0632E712C812C8F
:10076000912C1EC16F968FAF6F97082E04C0220C7C
:10077000331C441C551C0A94D2F7EE2DE81B64016F
:1007800053010E2E04C0D694C794B794A7940A942C
:10079000D2F7A40193016F960FAC6F9704C0220F9C
:1007A000331F441F551F0A94D2F76DA47EA48FA453
:1007B00098A80E2E04C096948794779467940A9410
:1007C000D2F784017301E22AF32A042B152BE9A640
:1007D000FAA60BA71CA73201882499249201810153
:1007E0002070307021960CAF1DAF2EAF3FAF219718
:1007F000C601B501A40193010E94801F7B018C01F9
:10080000C601B501A40193010E94801FC901DA014C
:1008100025968CAF9DAFAEAFBFAF2597BC01CD0184
:1008200021962CAD3DAD4EAD5FAD21970E94611F6D
:100830009B01AC018701FF24EE24A9A4BAA4CBA498
:10084000DCA4C601AA27BB275C016D01AE28BF2826
:10085000C02AD12AA216B306C406D50660F525968D
:100860006CAD7DAD8EAD9FAD2597615070408040E1
:10087000904025966CAF7DAF8EAF9FAF2597A20CB1
:10088000B31CC41CD51CA214B304C404D50498F032
:10089000A216B306C406D50670F4615070408040BD
:1008A000904025966CAF7DAF8EAF9FAF2597A20C81
:1008B000B31CC41CD51CA21AB30AC40AD50AC601AB
:1008C000B501A40193010E94801F7B018C01C60128
:1008D000B501A40193010E94801FC901DA013C0106
:1008E0004D01C401B30121962CAD3DAD4EAD5FADC0
:1008F00021970E94611F9B01AC018701FF24EE2418
:1009000089A59AA5ABA5BCA5A070B07057016801D8
:10091000A82AB92ACA2ADB2AA216B306C406D50613
:10092000E0F408946108710881089108A20CB31CD6
:10093000C41CD51CA214B304C404D50470F0A216C0
:10094000B306C406D50648F4089461087108810806
:100950009108A20CB31CC41CD51C8DA59EA5AFA5E7
:10096000B8A96F960FAC6F9704C0880F991FAA1F84
:10097000BB1F0A94D2F78DA79EA7AFA7B8ABA21A48
:10098000B30AC40AD50A2596ECACFDAC0EAD1FAD7A
:100990002597D70199278827682A792A8A2A9B2AA6
:1009A00082012227332729960CAF1DAF2EAF3FAF10
:1009B0002997A2019101407050702D962CAF3DAF48
:1009C0004EAF5FAF2D97C601B50129962CAD3DAD59
:1009D0004EAD5FAD29970E94801F7B018C01C6013F
:1009E000B50129962CAD3DAD4EAD5FAD29970E9466
:1009F000801FC901DA0161968CAF9DAFAEAFBFAF6A
:100A00006197BC01CD012D962CAD3DAD4EAD5FADD6
:100A10002D970E94611F9B01AC018701FF24EE24EA
:100A2000ADA4BEA4CFA4D8A8C601AA27BB2757014E
:100A30006801A82AB92ACA2ADB2AA216B306C40664
:100A4000D50660F561966CAD7DAD8EAD9FAD6197BD
:100A5000615070408040904061966CAF7DAF8EAF2A
:100A60009FAF6197A20CB31CC41CD51CA214B30485
:100A7000C404D50498F0A216B306C406D50670F4D3
:100A8000615070408040904061966CAF7DAF8EAFFA
:100A90009FAF6197A20CB31CC41CD51CA21AB30A49
:100AA000C40AD50AC601B50129962CAD3DAD4EAD9F
:100AB0005FAD29970E94801F7B018C01C601B501A3
:100AC00029962CAD3DAD4EAD5FAD29970E94801F9C
:100AD000C901DA015C016D01C601B5012D962CAD8D
:100AE0003DAD4EAD5FAD2D970E94611F9B01AC01E6
:100AF0008701FF24EE248DA59EA5AFA5B8A9A070FF
:100B0000B070E82AF92A0A2B1B2BE216F306040719
:100B10001507C0F40894A108B108C108D108E20C77
:100B2000F31C041D151DE214F3040405150550F013
:100B3000E216F3060407150728F40894A108B10883
:100B4000C108D1086196ECACFDAC0EAD1FAD61974C
:100B5000D7019927882796018501082B192B2A2B65
:100B60003B2B09AB1AAB2BAB3CAB62C26E147F04C0
:100B70008006910608F451C220E0E21620E0F20659
:100B800021E0020720E0120788F43FEFE316F104AA
:100B90000105110531F028F048E050E060E070E018
:100BA00017C040E050E060E070E012C040E0E416A2
:100BB00040E0F40640E0040741E0140728F048E173
:100BC00050E060E070E004C040E150E060E070E0C0
:100BD000D801C701042E04C0B695A79597958795AF
:100BE0000A94D2F78B589F4FDC012C9130E2A32E50
:100BF000B12CC12CD12CD601C501841B950BA60BA1
:100C0000B70B821B9109A109B1090097A105B10594
:100C100089F4E614F7040805190508F4F2C16DA477
:100C20007EA48FA498A8621473048404950408F029
:100C3000E8C1F3C16E968FAF6E97082E04C0EE0C1C
:100C4000FF1C001F111F0A94D2F76A2D681BD201E6
:100C5000C101062E04C0B695A795979587950A946D
:100C6000D2F75C016D01AE28BF28C02AD12AADA2FF
:100C7000BEA2CFA2D8A6720161016E960FAC6E978C
:100C800004C0CC0CDD1CEE1CFF1C0A94D2F7C9A2D8
:100C9000DAA2EBA2FCA264015301062E04C0D69492
:100CA000C794B794A7940A94D2F7D401C3016E965F
:100CB0000FAC6E9704C0880F991FAA1FBB1F0A9420
:100CC000D2F7EDA4FEA40FA518A904C016950795A8
:100CD000F794E7946A95D2F737014801682A792A90
:100CE0008A2A9B2A6D8E7E8E8F8E98A2EDA0FEA002
:100CF0000FA118A538018824992498018701207034
:100D0000307065960CAF1DAF2EAF3FAF6597C60133
:100D1000B501A40193010E94801F7B018C01C601D3
:100D2000B501A40193010E94801FC901DA011C01D1
:100D30002D01C201B10165962CAD3DAD4EAD5FAD4B
:100D400065970E94611F9B01AC018701FF24EE247F
:100D5000AD8CBE8CCF8CD8A0C601AA27BB2757016B
:100D60006801A82AB92ACA2ADB2AA216B306C40631
:100D7000D50600F508942108310841085108EDA076
:100D8000FEA00FA118A5AE0CBF1CC01ED11EAE1434
:100D9000BF04C006D10670F0A216B306C406D5067D
:100DA00048F408942108310841085108AE0CBF1CD2
:100DB000C01ED11EA21AB30AC40AD50AC601B501C3
:100DC000A40193010E94801F7B018C01C601B50123
:100DD000A40193010E94801FC901DA013C014D0169
:100DE000C401B30165962CAD3DAD4EAD5FAD6597C9
:100DF0000E94611F9B01AC018701FF24EE248D8DB1
:100E00009E8DAF8DB8A1A070B07057016801A82A5F
:100E1000B92ACA2ADB2AA216B306C406D50600F5EB
:100E2000089461087108810891086DA17EA18FA1C5
:100E300098A5A60EB71EC81ED91EA616B706C806C8
:100E4000D90670F0A216B306C406D50648F4089475
:100E50006108710881089108A60EB71EC81ED91E28
:100E6000D601C501821B930BA40BB50B898F9A8FFA
:100E7000AB8FBC8FD1019927882764015301A82A21
:100E8000B92ACA2ADB2AA9AABAAACBAADCAA86014D
:100E900075012FEF3FEF40E050E0E222F322042300
:100EA0001523A601662777276D964CAF5DAF6EAF11
:100EB0007FAF6D97A9A0BAA0CBA0DCA06FEF7FEFAA
:100EC00080E090E0A622B722C822D92289A19AA167
:100ED000ABA1BCA11D0144245524C801B701A60142
:100EE00095010E94611F69966CAF7DAF8EAF9FAF79
:100EF0006997C801B701A20191010E94611F3B01DE
:100F00004C016D966CAD7DAD8EAD9FAD6D97A6011C
:100F100095010E94611F7B018C016D966CAD7DADCA
:100F20008EAD9FAD6D97A20191010E94611F5B0183
:100F30006C01A8019701260D371D481D591D6996A2
:100F40006CAC7DAC8EAC9FAC6997C401AA27BB2763
:100F5000280F391F4A1F5B1F2E153F0540075107F9
:100F600048F4E12CF12C61E0062F112DAE0CBF1CD2
:100F7000C01ED11ECA01AA27BB27BC01CD016A0D24
:100F80007B1D8C1D9D1D698C7A8C8B8C9C8C6616B0
:100F900077068806990640F1661577058805990554
:100FA00009F043C0D9019927882769962CAD3DAD3A
:100FB0004EAD5FAD699740705070820F931FA41FB4
:100FC000B51F2DA53EA54FA558A96E960FAC6E97DF
:100FD00004C0220F331F441F551F0A94D2F728174D
:100FE00039074A075B0708F509A91AA92BA93CA9E3
:100FF000015010402040304009AB1AAB2BAB3CAB4A
:1010000014C066247724430121E030E040E050E042
:1010100029AB3AAB4BAB5CAB0BC0662477244301E6
:1010200019AA1AAA1BAA1CAA03C066247724430182
:10103000FE01719688E0DF011D928A95E9F7A9A863
:10104000BAA8CBA8DCA8A98ABA8ACB8ADC8A6D8A1E
:101050007E8A8F8A988E29A93A894B895C89662D68
:101060007E898F89988DC25ADF4FE2E10C94BE1FB2
:101070000E94A60E08957F928F929F92AF92BF9288
:10108000CF92DF92EF92FF920F931F93D82EC22E32
:10109000B32EA42E952E862E772E0E94C40A8D2D57
:1010A0002C2D3B2D4A2D592D682D772D0E944A0B52
:1010B0008D2D0E94120F1F910F91FF90EF90DF90E6
:1010C000CF90BF90AF909F908F907F9008952F9278
:1010D0003F924F925F926F927F928F929F92AF92C8
:1010E000BF92CF92DF92EF92FF920F931F93DF9305
:1010F000CF93CDB7DEB728970FB6F894DEBF0FBEFB
:10110000CDBF8983C02EB12E922E832E642E452E04
:10111000262E7E83F886EF820E94C40A202F312F6C
:10112000492D582D662D742D822D9E8102E00E943E
:101130004401122FF32EE42EA52E562E7A838B8394
:101140009C8305E00E944401A32FB42F052FD62EC7
:10115000772E382E9D83822F811B182FF1E02817C0
:1011600008F0F0E03A2F3F19E1E0A31708F0E0E0C3
:10117000A32FAF1B21E03A1708F020E0E22B4B2F02
:101180004E1931E0B41708F030E0E42EEE1A21E0F9
:101190004E1508F020E0322B502F5A1941E0051768
:1011A00008F040E0B52FB31B21E05B1708F020E00A
:1011B000422B6D2D651931E0D61608F030E0962FE0
:1011C000941B21E0691708F020E0322B772DEA818B
:1011D0007E1B41E0771608F040E0072F031B21E05B
:1011E000701708F020E0422B832DFB818F1B21E03C
:1011F000381608F020E0F82EF41A31E08F1508F0C8
:1012000030E0232BAD808C81A81AA21AC10E31E0E8
:10121000C11608F030E01A2F1B0D41E01A1708F034
:1012200040E0D32ED10E81E0D11608F080E0482BAB
:101230002E2D290D51E02E1508F050E0142F120F1D
:1012400081E0121708F080E0582B3B2F380D61E049
:101250003B1708F060E0B52FB30F81E0B31708F03B
:1012600080E0682B492F460D71E0491708F070E0C7
:10127000A62FA40F81E0A41708F080E0782B502F50
:10128000540D81E0501708F080E0750FE1E075170C
:1012900008F0E0E08E2B6F2D620D91E06F1508F0E5
:1012A00090E0860FE1E0861708F0E0E09E2BEE81EB
:1012B000AE0E9601412F5B2F6A2F9A0D03E00E941C
:1012C0004401E82F898189019A01AB016E2F792FA2
:1012D000EF80F8840E944A0B89810E94120F2896A1
:1012E0000FB6F894DEBF0FBECDBFCF91DF911F9137
:1012F0000F91FF90EF90DF90CF90BF90AF909F90B5
:101300008F907F906F905F904F903F902F900895B7
:10131000FC018081882309F04EC08181813059F021
:10132000813030F0823069F0833009F097C00CC012
:1013300083B78F7B02C083B7806483BF83B7877F07
:1013400008C083B78F7B02C083B7806483BF83B735
:10135000886083BF83B7887F83BF83B79381892BDE
:1013600083BF9230C1F0933030F4992361F0913013
:1013700009F076C00DC09430C1F0943098F09530EB
:1013800009F06EC015C01092EA011092E90164C024
:1013900081E090E002C088E090E09093EA018093C1
:1013A000E9015AC080E490E0F8CF80E091E0F5CF09
:1013B00080E094E0F2CF813009F452C0823009F02D
:1013C0004FC08181813059F0813030F0823069F036
:1013D000833009F043C00CC085B58F7B02C085B552
:1013E000806485BD85B5877F08C085B58F7B02C0C9
:1013F00085B5806485BD85B5886085BD85B5887FE8
:1014000085BD85B59381892B85BD9230B1F0933030
:1014100028F4992351F0913019F50CC0943099F0CB
:10142000943070F09530E1F411C01092FF011092E9
:10143000FE0112C081E090E00BC088E090E008C09F
:1014400080E490E005C080E091E002C080E094E09C
:101450009093FF018093FE0181E0089580E008955C
:1014600081E00895A82FB0E0FD01EE0FFF1FEE0F01
:10147000FF1FEB58FE4FE081EE23E9F4613059F095
:10148000613030F0623069F0633009F079C00CC02F
:1014900083B78F7E02C083B7806183BF83B78F7DA0
:1014A00008C083B78F7E02C083B7806183BF83B7D4
:1014B000806283BF63C0E13009F043C0AA0FBB1F45
:1014C000AA0FBB1FA958BE4F8C918130E1F4613047
:1014D00059F0613030F0623069F0633009F050C08B
:1014E0000CC08FB58F7B02C08FB580648FBD8FB568
:1014F0008F7725C08FB58F7B02C08FB580648FBD7D
:101500008FB580681CC08230E9F5613051F06130E0
:1015100028F0623061F0633099F50CC08FB58F7E92
:1015200002C08FB580618FBD8FB58F7D08C08FB52C
:101530008F7E02C08FB580618FBD8FB580628FBDF9
:101540001DC0E230F9F4613051F0613028F06230B2
:1015500061F06330A9F40CC085B58F7E02C085B5FB
:10156000806185BD85B58F7D08C085B58F7E02C041
:1015700085B5806185BD85B5806285BD81E00895B2
:1015800080E0089581E00895E82FF0E0EE0FFF1F5E
:10159000EE0FFF1FEB58FE4FE081EE2319F489B7E1
:1015A000816009C0E13019F489B7846004C0E23079
:1015B00019F489B7806489BF81E00895E82FF0E0CD
:1015C000EE0FFF1FEE0FFF1FEB58FE4FE081EE23E3
:1015D00019F489B78E7F09C0E13019F489B78B7F80
:1015E00004C0E23019F489B78F7B89BF81E0089588
:1015F000A82FB0E0FD01EE0FFF1FEE0FFF1FEB580D
:10160000FE4FE081EE2319F489B7826017C0E13004
:1016100089F4AA0FBB1FAA0FBB1FA958BE4F8C91FC
:10162000813019F489B7806109C0823041F489B7EB
:10163000886004C0E23019F489B7806889BF81E00E
:101640000895A82FB0E0FD01EE0FFF1FEE0FFF1F62
:10165000EB58FE4FE081EE2319F489B78D7F17C058
:10166000E13089F4AA0FBB1FAA0FBB1FA958BE4FB8
:101670008C91813019F489B78F7E09C0823041F492
:1016800089B7877F04C0E23019F489B78F7789BFA3
:1016900081E008952F923F924F925F926F927F92D6
:1016A0008F929F92AF92BF92CF92DF92EF92FF9272
:1016B0000F931F93DF93CF93CDB7DEB760970FB62D
:1016C000F894DEBF0FBECDBF982F702E812E622EF4
:1016D000532E442E352E262E972EA82FB0E0FD0136
:1016E000EE0FFF1FEE0FFF1FEB58FE4FE081EE23C2
:1016F00009F085C109B600FC03C009B601FE08C0A7
:10170000E114F10409F406C3F092D701E092D60186
:10171000872D882986298529842983298229892951
:1017200009F4F8C2992099F4222089F4332079F43D
:10173000442069F4552059F4662049F481E0881565
:1017400030F0881611F4772011F482E0CFC0872D95
:10175000815021E0871508F020E0882D825031E08B
:10176000881508F030E0F22FF80F21E0F81708F0A4
:1017700020E0322B862D815041E0861508F040E0B4
:10178000E32FE80F21E0E81708F020E0422B852D39
:10179000815031E0851508F030E0742F780F21E09A
:1017A000781708F020E0322B842D815041E0841519
:1017B00008F040E0632F680F21E0681708F020E090
:1017C000422B832D815031E0831508F030E0542FF7
:1017D000580F21E0581708F020E0322B822D81505D
:1017E00021E0821508F020E0432F480F31E0481730
:1017F00008F030E0232B9A94290D9394222371F45E
:10180000442361F4552351F4662341F4772331F4E2
:10181000EE2321F4F73010F483E068C0872D815067
:1018200021E0871508F020E0882D895031E08815E7
:1018300008F030E0F22FF80F21E0F81708F020E070
:10184000322B862D815041E0861508F040E0E32FD1
:10185000E80F21E0E81708F020E0422B852D8150A9
:1018600031E0851508F030E0742F780F21E078170B
:1018700008F020E0322B842D815041E0841508F0DF
:1018800040E0632F680F21E0681708F020E0422B4A
:10189000832D815031E0831508F030E0542F580F2C
:1018A00021E0581708F020E0322B822D815021E0F2
:1018B000821508F020E0432F480F31E0481708F068
:1018C00030E0232B9A94290D9394222361F444232E
:1018D00051F4552341F4662331F4772321F4EE23A8
:1018E00011F4F83110F085E001C084E0AA0FBB1FAD
:1018F000AA0FBB1FAB58BE4F13968C93892F90E055
:10190000880F991F880F991F8B589E4F0E94880936
:101910002091E9013091EA0140E050E060E072E19D
:101920008AE790E00E94801F59016A01A60160E0E9
:1019300070E080E090E0A72CB82CC62CD52CE42CCD
:10194000F32C022D192D0E94490029833A834B83E1
:101950005C836D837E838F839887AA2400E4B02EF6
:1019600012E4C12EBFE0DB2EEE24FF2400E010E0E5
:101970000E94C301922E832E742E652E562E472E62
:10198000382E292E2093D8013093D9014093DA01C3
:101990005093DB016093DC017093DD018093DE01E5
:1019A0009093DF0129813A814B815C816D817E8139
:1019B0008F819885A0E4AA2EF2E4BF2EEFE0CE2E10
:1019C000DD240E94C301122F292D382D472D562DBD
:1019D000652D742D832D922D08E00E944401121B69
:1019E0001093E801982897289628952894289328FA
:1019F000922819F4119512BF8FC112BE8DC1E1302A
:101A000009F48AC1E23009F087C109B606FC03C0B7
:101A100009B607FE08C0E114F10409F47BC1F09295
:101A2000EC01E092EB01872D8829862985298429FC
:101A300083298229892909F46DC1992099F42220EA
:101A400089F4332079F4442069F4552059F4662050
:101A500049F4E1E0E81530F08E1611F4772011F426
:101A600082E0CFC0872D815021E0871508F020E06B
:101A7000882D825031E0881508F030E0F22FF80F01
:101A800021E0F81708F020E0322B862D815041E04C
:101A9000861508F040E0E32FE80F21E0E81708F092
:101AA00020E0422B852D815031E0851508F030E093
:101AB000742F780F21E0781708F020E0322B842D66
:101AC000815041E0841508F040E0632F680F21E069
:101AD000681708F020E0422B832D815031E08315F8
:101AE00008F030E0542F580F21E0581708F020E09C
:101AF000322B822D815021E0821508F020E0432F07
:101B0000480F31E0481708F030E0232B9A94290D54
:101B10009394222371F4442361F4552351F46623F2
:101B200041F4772331F4EE2321F4F73010F483E00D
:101B300068C0872D815021E0871508F020E0882DAE
:101B4000895031E0881508F030E0F22FF80F21E0DD
:101B5000F81708F020E0322B862D815041E08615E1
:101B600008F040E0E32FE80F21E0E81708F020E05C
:101B7000422B852D815031E0851508F030E0742F1F
:101B8000780F21E0781708F020E0322B842D815067
:101B900041E0841508F040E0632F680F21E06817EA
:101BA00008F020E0422B832D815031E0831508F0AE
:101BB00030E0542F580F21E0581708F020E0322B66
:101BC000822D815021E0821508F020E0432F480F3C
:101BD00031E0481708F030E0232B9A94290D9394B4
:101BE000222361F4442351F4552341F4662331F454
:101BF000772321F4EE2311F4F83110F085E001C0D1
:101C000084E0AA0FBB1FAA0FBB1FAB58BE4F139691
:101C10008C93892F90E0880F991F880F991F8B58FC
:101C20009E4F0E9488092091FE013091FF0140E003
:101C300050E060E072E18AE790E00E94801F590165
:101C40006A01A60160E070E080E090E0A72CB82C6B
:101C5000C62CD52CE42CF32C022D192D0E94490002
:101C600029873A874B875C876D877E878F87988B1C
:101C7000AA2400E4B02E12E4C12EBFE0DB2EEE2435
:101C8000FF2400E010E00E94C301922E832E742EE8
:101C9000652E562E472E382E292E2093ED01309397
:101CA000EE014093EF015093F0016093F1017093C6
:101CB000F2018093F3019093F40129853A854B85D5
:101CC0005C856D857E858F859889A0E4AA2EF2E4D7
:101CD000BF2EEFE0CE2EDD240E94C301122F292D4E
:101CE000382D472D562D652D742D832D922D08E00E
:101CF0000E944401121B1093FD01982897289628F2
:101D0000952894289328922819F4119514BD04C09D
:101D100014BC02C080E001C081E060960FB6F89468
:101D2000DEBF0FBECDBFCF91DF911F910F91FF900E
:101D3000EF90DF90CF90BF90AF909F908F907F906B
:101D40006F905F904F903F902F9008951F93CF9387
:101D5000DF93182F0E94DE0A812F0E94210BC12FD2
:101D6000D0E0CC0FDD1FCC0FDD1FCB58DE4F1B8228
:101D7000CE010E9488098881882331F588B7816067
:101D800088BF1092D8011092D9011092DA011092F6
:101D9000DB011092DC011092DD011092DE01109245
:101DA000DF011092E8011092E0011092E10110921F
:101DB000E2011092E3011092E4011092E501109209
:101DC000E6011092E70129C0813039F1823029F50E
:101DD00088B7806488BF1092ED011092EE011092D6
:101DE000EF011092F0011092F1011092F2011092A5
:101DF000F3011092F4011092FD011092F50110927E
:101E0000F6011092F7011092F8011092F901109268
:101E1000FA011092FB011092FC0181E0DF91CF9159
:101E20001F910895DF92EF92FF920F931F93D82E88
:101E3000E82FF0E0EE0FFF1FEE0FFF1FEB58FE4FF5
:101E4000E081EE2309F0A2C0B091E0019091E101A0
:101E50002091E2013091E3014091E4016091E501BC
:101E6000A091E601F090E701E090D8018091D901BE
:101E70005091DA017091DB01E091DC01F091DD011C
:101E80001091DE010091DF01F016E0F00F15F1F482
:101E9000A117C0F01A17D1F46F17A0F0F617B1F41C
:101EA0004E1780F0E41791F4371760F0731771F450
:101EB000251740F0521751F4981720F0891731F484
:101EC000BE1520F408B600FE0FC11CC0BE1509F0F7
:101ED00058C0981709F055C0251709F052C0371798
:101EE00009F04FC04E1709F04CC06F1709F049C0F8
:101EF000A11709F046C0F01609F043C08091E8012F
:101F0000809582BF88B7816088BFFB2FFF5F81E02B
:101F1000FB1708F080E0E82FE90F81E0E91708F0EF
:101F200080E0782F720F81E0721708F080E0582F60
:101F3000530F81E0531708F080E0382F340F81E011
:101F4000341708F080E0282F260F81E0261708F0CC
:101F500080E0982F9A0F81E09A1708F080E08F0DAB
:101F6000F093E001E093E1017093E2015093E3010B
:101F70003093E4012093E5019093E6018093E7011B
:101F8000B3C0E091D601F091D701A8C0E13009F4C7
:101F9000ABC0E23011F080E0A8C0B091F5019091A3
:101FA000F6012091F7013091F8014091F90160911B
:101FB000FA01A091FB01F090FC01E090ED0180910D
:101FC000EE015091EF017091F001E091F101F0917B
:101FD000F2011091F3010091F401F016E0F00F15F9
:101FE000F1F4A117C0F01A17D1F46F17A0F0F6178B
:101FF000B1F44E1780F0E41791F4371760F07317BF
:1020000071F4251740F0521751F4981720F08917F2
:1020100031F4BE1520F408B606FE66C01CC0BE151D
:1020200009F058C0981709F055C0251709F052C09B
:10203000371709F04FC04E1709F04CC06F1709F061
:1020400049C0A11709F046C0F01609F043C08091BD
:10205000FD01809584BD88B7806488BFFB2FFF5F3A
:1020600081E0FB1708F080E0E82FE90F81E0E91735
:1020700008F080E0782F720F81E0721708F080E09E
:10208000582F530F81E0531708F080E0382F340F9A
:1020900081E0341708F080E0282F260F81E0261712
:1020A00008F080E0982F9A0F81E09A1708F080E0FE
:1020B0008F0DF093F501E093F6017093F7015093C3
:1020C000F8013093F9012093FA019093FB0180937A
:1020D000FC010AC0E091EB01F091EC01309709F0AE
:1020E00009958D2D0E94A60E81E01F910F91FF9002
:1020F000EF90DF900895382F8D3028F08E50823089
:1021000010F080E008958FB58C7F8FBD9FB5832F31
:102110008370892B8FBD8EB5877E8EBD2EB5832FA4
:1021200090E08C709070880F991F282B2EBD8EB573
:10213000887F8EBD8EB5862B8EBD81E00895009779
:1021400011F480E00895909301028093000281E0F1
:102150000895FC01009711F480E008958091020237
:1021600090910302A0910402B091050280839183B3
:10217000A283B38381E008951092020210920302B9
:10218000109204021092050281E008951F920F92AE
:102190000FB60F921124EF92FF920F931F932F937C
:1021A0003F934F935F936F937F938F939F93AF93DF
:1021B000BF93EF93FF936091E0019091E101209133
:1021C000E2013091E3014091E4015091E501E09199
:1021D000E601F090E701E090D8018091D90170917B
:1021E000DA01F091DB01A091DC01B091DD011091E9
:1021F000DE010091DF01F016C0F10F15D1F4E117F7
:10220000A0F11E17B1F45B1780F1B51791F44A17CE
:1022100060F1A41771F43F1740F1F31751F4271739
:1022200020F1721731F4981700F1891711F46E1527
:10223000E0F06E1509F055C0981709F052C0271745
:1022400009F04FC03F1709F04CC04A1709F049C0C8
:102250005B1709F046C0E11709F043C0F01609F01A
:1022600040C08091E801809582BFA62FAF5F81E0DA
:10227000A61708F080E0F82FF90F81E0F91708F0B1
:1022800080E0782F720F81E0721708F080E0682FED
:10229000630F81E0631708F080E0382F340F81E08E
:1022A000341708F080E0282F250F81E0251708F06B
:1022B00080E0982F9E0F81E09E1708F080E08F0D40
:1022C000A093E001F093E1017093E2016093E301D8
:1022D0003093E4012093E5019093E6018093E701B8
:1022E00017C01092E0011092E1011092E2011092E9
:1022F000E3011092E4011092E5011092E6011092C0
:10230000E701E091D601F091D701309709F00995E6
:10231000FF91EF91BF91AF919F918F917F916F91BD
:102320005F914F913F912F911F910F91FF90EF90EF
:102330000F900FBE0F901F9018951F920F920FB61F
:102340000F9211242F933F934F935F936F937F933B
:102350008F939F93AF93BF93EF93FF93809102026C
:1023600090910302A0910402B09105020196A11D73
:10237000B11D8093020290930302A0930402B093D4
:102380000502E0910002F0910102309709F00995F1
:10239000FF91EF91BF91AF919F918F917F916F913D
:1023A0005F914F913F912F910F900FBE0F901F9013
:1023B00018951F920F920FB60F921124EF92FF9271
:1023C0000F931F932F933F934F935F936F937F933D
:1023D0008F939F93AF93BF93EF93FF936091F5011A
:1023E0009091F6012091F7013091F8014091F901A7
:1023F0005091FA01E091FB01F090FC01E090ED01B9
:102400008091EE017091EF01F091F001A091F10146
:10241000B091F2011091F3010091F401F016C0F1B6
:102420000F15D1F4E117A0F11E17B1F45B1780F17D
:10243000B51791F44A1760F1A41771F43F1740F1F2
:10244000F31751F4271720F1721731F4981700F1A0
:10245000891711F46E15E0F06E1509F055C0981744
:1024600009F052C0271709F04FC03F1709F04CC0C0
:102470004A1709F049C05B1709F046C0E11709F097
:1024800043C0F01609F040C08091FD01809584BDE5
:10249000A62FAF5F81E0A61708F080E0F82FF90FB4
:1024A00081E0F91708F080E0782F720F81E0721751
:1024B00008F080E0682F630F81E0631708F080E088
:1024C000382F340F81E0341708F080E0282F250FD3
:1024D00081E0251708F080E0982F9E0F81E09E177D
:1024E00008F080E08F0DA093F501F093F601709352
:1024F000F7016093F8013093F9012093FA0190936A
:10250000FB018093FC0117C01092F5011092F601B7
:102510001092F7011092F8011092F9011092FA014D
:102520001092FB011092FC01E091EB01F091EC01A3
:10253000309709F00995FF91EF91BF91AF919F916D
:102540008F917F916F915F914F913F912F911F914B
:102550000F91FF90EF900F900FBE0F901F90189566
:10256000DC01EC91EE2311F0E33039F411968C91FB
:102570001197813069F0853059F08E2F815082306B
:1025800008F0CAC011968C9111978F3008F0C4C022
:1025900012962C911297222329F0233019F0223021
:1025A00009F0BAC013963C911397363008F0B4C0C6
:1025B000E13091F1E13038F0E23009F458C0E33015
:1025C00009F0A4C07CC011968C91813031F483B79E
:1025D000806483BF83B7877F07C0853031F483B7BA
:1025E000806483BF83B7886083BF83B7922F92953F
:1025F000907F8F7C982B93BF83B7887F832B83BF7B
:10260000233019F48CB71CBE81C0223009F07EC083
:102610008CB78FEF8CBF7AC08FB511969C918C7F51
:10262000892B8FBD8EB5990F990F990F8F79982BA4
:102630009EBD8FB5922F9295990F990F907C8F73B5
:10264000982B9FBD8EB5887F832B8EBD233029F4B8
:102650008AB59BB51BBC1ABC59C0223009F056C0C4
:102660008AB59BB58FEF9FEF9BBD8ABD4FC08FB5DD
:1026700011969C918C7F892B8FBD8EB5990F990FE8
:10268000990F8F79982B9EBD8FB5922F9295907F41
:102690008F7C982B9FBD8EB5887F832B8EBD23307A
:1026A00029F488B599B519BC18BC30C0223071F531
:1026B00088B599B58FEF9FEF99BD88BD27C011965A
:1026C0008C91813031F485B5806485BD85B5877F77
:1026D00007C0853031F485B5806485BD85B58860D7
:1026E00085BD85B5922F9295907F8F7C982B95BD57
:1026F00085B5887F832B85BD233019F483B513BC42
:1027000005C0223019F483B58FEF83BDF0E0EA5F96
:10271000FD4F81E08083089580E008951F93E82FA6
:10272000F0E0EE0FFF1FEE0FFF1FE358FE4F10818A
:10273000E12FF0E0EA5FFD4F8081813069F5653679
:1027400058F570E080E090E020E137E240E050E0B2
:102750000E94611F24E630E040E050E00E94801FAC
:10276000113049F0113028F0123061F0133081F44B
:1027700011C02CBF0DC080E197E297BD86BD3BBD67
:102780002ABD06C080E197E297BD86BD39BD28BD50
:1027900081E003C023BDFCCF80E01F910895A82FE6
:1027A000B0E0FD01EE0FFF1FEE0FFF1FE358FE4FDD
:1027B0009081E92FF0E0EA5FFD4F8081813011F0D8
:1027C00080E008959130D9F0913030F0923071F17D
:1027D000933009F055C041C0AA0FBB1FAA0FBB1F01
:1027E000A158BE4F8C91833019F48CB71CBE46C0E3
:1027F000823009F045C08CB78FEF8CBF3FC0AA0F65
:10280000BB1FAA0FBB1FA158BE4F8C91833029F468
:102810008AB59BB51BBC1ABC31C0823089F58AB51C
:102820009BB58FEF9FEF9BBD8ABD28C0AA0FBB1F32
:10283000AA0FBB1FA158BE4F8C91833029F488B5D5
:1028400099B519BC18BC1AC08230D1F488B599B5B5
:102850008FEF9FEF99BD88BD11C0AA0FBB1FAA0FB4
:10286000BB1FA158BE4F8C91833019F483B513BCA4
:1028700005C0823029F483B58FEF83BD81E00895D0
:1028800081E00895FC018081882329F581818130D0
:1028900099F0813028F0823049F0833099F403C0F8
:1028A00085B78E7F0BC085B7816002C085B78E7FEC
:1028B00085BF85B7826005C085B7816085BF85B754
:1028C0008D7F85BF828193819093470280934602DA
:1028D0008BB780643CC0813029F58181813099F0CB
:1028E000813028F0823049F0833099F403C085B7F5
:1028F0008B7F0BC085B7846002C085B78B7F85BF97
:1029000085B7886005C085B7846085BF85B7877F38
:1029100085BF8281938190934302809342028BB75B
:10292000806815C08230A1F48181823029F0833023
:1029300031F484B7806402C084B78F7B84BF828106
:10294000938190934502809344028BB780628BBF42
:102950008FB780688FBF81E00895E82FF0E0EE0F19
:10296000FF1FEE0FFF1FEB57FE4FE081EE23D9F460
:10297000613099F0613028F0623049F06330E9F558
:1029800003C085B78E7F0BC085B7816002C085B755
:102990008E7F85BF85B7826022C085B7816085BF85
:1029A00085B78D7F1CC0E130E1F4613099F0613072
:1029B00028F0623049F0633001F503C085B78B7FA2
:1029C0000BC085B7846002C085B78B7F85BF85B794
:1029D000886005C085B7846085BF85B7877F85BF60
:1029E0000CC0E23051F4623029F0633031F484B726
:1029F000806402C084B78F7B84BF81E00895E82F94
:102A0000F0E0EE0FFF1FEE0FFF1FEB57FE4FE081D0
:102A1000EE2329F470934702609346020DC0E13023
:102A200029F4709343026093420206C0E23021F41D
:102A3000709345026093440281E008951F920F92C3
:102A40000FB60F9211242F933F934F935F936F9381
:102A50007F938F939F93AF93BF93EF93FF93E091F7
:102A60004602F09147020995FF91EF91BF91AF9116
:102A70009F918F917F916F915F914F913F912F9196
:102A80000F900FBE0F901F9018951F920F920FB6C8
:102A90000F9211242F933F934F935F936F937F93E4
:102AA0008F939F93AF93BF93EF93FF93E091420275
:102AB000F09143020995FF91EF91BF91AF919F91E2
:102AC0008F917F916F915F914F913F912F910F90D7
:102AD0000FBE0F901F9018951F920F920FB60F9276
:102AE00011242F933F934F935F936F937F938F9313
:102AF0009F93AF93BF93EF93FF93E0914402F091C4
:102B000045020995FF91EF91BF91AF919F918F91F0
:102B10007F916F915F914F913F912F910F900FBED9
:102B20000F901F901895DC012C91203208F055C0B1
:102B300011967C911197723008F04FC012968C91CB
:102B40001297823008F049C0E22FE695E695E695A7
:102B5000F0E0EE52FE4FE081F0E0629130E027704D
:102B6000307041E050E0CA01022E02C0880F991F68
:102B70000A94E2F780956823872F90E002C0880FBF
:102B8000991F2A95E2F7682B60832C91E22FE69536
:102B9000E695E695F0E0EE52FE4FE081F0E06081D0
:102BA00030E027703070022E02C0440F551F0A9487
:102BB000E2F74095642312968C91129790E002C040
:102BC000880F991F2A95E2F7682B6083EC91F0E05B
:102BD000E65FFD4F81E08083089580E0089590E0F6
:102BE000DC01AA0FBB1FA80FB91FA757BE4F9C91AE
:102BF000492F50E0FA01E65FFD4F8081813029F5D1
:102C000011968C91813009F5969596959695E92FB8
:102C1000F0E0EE52FE4FE081F0E02081477050700E
:102C200081E090E0042E02C0880F991F0A94E2F719
:102C300080952823862F90E002C0880F991F4A951F
:102C4000E2F7282B208381E0089580E00895CF9358
:102C5000DF93EB0190E0DC01AA0FBB1FA80FB91FA7
:102C6000A757BE4F9C91492F50E0FA01E65FFD4FF8
:102C70008081813021F511968C91882301F59695FC
:102C800096959695E92FF0E0EE52FE4FE081F0E048
:102C9000329720814770507030E081E090E0042E40
:102CA00002C0880F991F0A94E2F72823392302C033
:102CB000359527954A95E2F7288381E001C080E0A9
:102CC000DF91CF91089590E0DC01AA0FBB1FA80F00
:102CD000B91FA757BE4F9C91492F50E0FA01E65FFC
:102CE000FD4F8081813091F511968C91813071F585
:102CF000969596959695E92FF0E0EE52FE4FE0817D
:102D0000F0E03297808132964770507021E030E0D9
:102D1000042E02C0220F331F0A94E2F7608190E074
:102D200082239323042E02C0959587950A94E2F797
:102D300090E08095909502C0880F991F4A95E2F720
:102D400020956223682B608381E0089580E00895D8
:102D5000CF93DF93EB018093480280913102882367
:102D6000E9F060912D0270912E0280912F029091D6
:102D700030022091290230912A0240912B02509179
:102D80002C02621B730B840B950B2AE330E040E0AE
:102D900050E00E94801F3983288381E0DF91CF912A
:102DA00008950F931F93CF93DF93EB018093480215
:102DB0001092310290E08C01000F111F080F191FB3
:102DC00000551E4FF801808163E00E942518F8012C
:102DD000818161E00E94EF158AE18A95F1F7F8019F
:102DE000818160E00E94EF15809131028823E1F338
:102DF00060912D0270912E0280912F0290913002ED
:102E00002091290230912A0240912B0250912C02EC
:102E1000621B730B840B950B2AE330E040E050E01B
:102E20000E94801F288339834A835B8381E0DF917E
:102E3000CF911F910F9108950F931F93109231021C
:102E400090E08C01000F111F080F191F00551E4F35
:102E5000F801808163E00E942518F801818161E01A
:102E60000E94EF158AE18A95F1F7F801818160E00F
:102E70000E94EF15F80180810E94D81781E01F9110
:102E80000F910895DF92EF92FF920F931F9390E0BE
:102E90008C01000F111F080F191F00551E4FF8015C
:102EA000818153E0D52E8D9DC001112449E8E42E87
:102EB00041E0F42E8E0D9F1D0E949315F801828132
:102EC0008D9DC00111248E0D9F1D0E949315F80148
:102ED00080810E943318F801808168E777E10E94C1
:102EE000C51781E01F910F91FF90EF90DF9008953B
:102EF0001F9310913202112321F0113009F043C0C9
:102F000021C08091480290E0FC01EE0FFF1FE80F06
:102F1000F91FE055FE4F808169E272E00E94DC17E4
:102F20008091480290E0FC01EE0FFF1FE80FF91FAF
:102F3000E055FE4F808162E00E94251881E0809379
:102F4000320221C08091480290E0FC01EE0FFF1F89
:102F5000E80FF91FE055FE4F80816DE272E00E949C
:102F6000DC178091480290E0FC01EE0FFF1FE80F94
:102F7000F91FE055FE4F808163E00E9425181092F2
:102F80003202109331021F9108956115710511F4F9
:102F900080E00895E82FF0E083E0EE0FFF1F8A95B0
:102FA000E1F7ED54FE4F81810E94FF1481E0089506
:102FB0000E94BC1081E00895CF92DF92EF92FF92C1
:102FC0000F931F93DF93CF9300D000D0CDB7DEB720
:102FD000182F6B016115710511F480E029C0ECB464
:102FE000FDB419821A821B821C82CE0101960E94B6
:102FF000A910E12FF0E093E0EE0FFF1F9A95E1F7A3
:10300000ED54FE4F6381748180E090E029813A8124
:103010004B815C810E94611F00E010E0E60EF71E0C
:10302000081F191FF601E082F1820283138381E0F9
:103030000F900F900F900F90CF91DF911F910F91F4
:10304000FF90EF90DF90CF900895E82FF0E023E01D
:10305000EE0FFF1F2A95E1F7ED54FE4F81810E948C
:10306000AD1481E00895CF92DF92EF92FF920F931B
:103070001F93082F10E063EBE62E61E0F62E53E07D
:10308000000F111F5A95E1F76701C00ED11EF6011E
:10309000818190E0880F991F880F991F8B579E4F51
:1030A0000E9442148EE062E00E947B100E94BC10DD
:1030B000E00EF11EF70182810E94C40AF6018581AB
:1030C00090E024EF31E0AC01429FC001439F900D9E
:1030D000529F900D112497BD86BD1DBC1CBC81E084
:1030E0001F910F91FF90EF90DF90CF900895CF92B6
:1030F000DF92EF92FF920F931F93CF93DF93082FEE
:10310000F62E909134028091BC01891709F433C1E5
:10311000923009F494C0933030F4992371F09130D7
:1031200009F029C128C0943009F489C0943008F40A
:103130009DC0953009F01FC117C110923902202F90
:1031400030E08DE090E0289F8001299F100D389F8E
:10315000100D112402541E4FF801818160E00E947D
:10316000EF15F801828160E00E94EF158091340232
:103170008093BC0177C0C02EDD248DE090E0C89E16
:10318000E001C99ED00DD89ED00D1124C254DE4F4F
:103190008881882341F5062F10E0B80160717070B6
:1031A00034E0759567953A95E1F788850E94EF15AB
:1031B000B8016072707025E0759567952A95E1F702
:1031C00089850E94EF150074107096E0159507959B
:1031D0009A95E1F78A85602F0E94EF15FF1CFF2466
:1031E000FF1C8B852AC0813009F096C0062F10E0A5
:1031F000B8016071707084E0759567958A95E1F704
:103200008C810E94EF15B80160727070B5E0759501
:103210006795BA95E1F78D810E94EF1500741070E3
:10322000A6E015950795AA95E1F78E81602F0E947B
:10323000EF15FF1CFF24FF1C8F816F2D6BC0202F0B
:1032400030E08DE090E0289FF001299FF00D389F3D
:10325000F00D1124E254FE4F838160E00E94EF15CF
:10326000809134028F5F8093340285C0C02EDD24AC
:103270008DE090E0C89EE001C99ED00DD89ED00D93
:103280001124C254DE4F8881882309F56170888536
:103290000E94EF150F2D10E0B801627070707595E7
:1032A000679589850E94EF15B801647070707595F7
:1032B0006795759567958A850E94EF15087010705F
:1032C00053E0159507955A95E1F78B8522C081301B
:1032D00019F561708C810E94EF150F2D10E0B80177
:1032E00062707070759567958D810E94EF15B801B9
:1032F0006470707075956795759567958E810E945D
:10330000EF150870107023E0159507952A95E1F7E1
:103310008F81602F0E94EF158DE090E0C89E8001A4
:10332000C99E100DD89E100D112402541E4FF80195
:10333000838161E00E94EF15809134028093BC018B
:1033400082E080933702F801848501E010E020E0FC
:1033500030E040E050E060E070E098EAE92E9BE168
:10336000F92E0E94670807C081E08093390210920D
:1033700034029093BC0180913902DF91CF911F916B
:103380000F91FF90EF90DF90CF900895EF92FF9212
:103390000F931F93182F84E0809337028091360299
:1033A000882319F0823041F524C0812F61E00E940A
:1033B0007718212F30E08DE090E0289FF001299FC1
:1033C000F00D389FF00D1124E254FE4F84850AEF72
:1033D00015E020E030E040E050E060E070E0E8EA36
:1033E000EE2EEBE1FE2E0E943B0881E08093360238
:1033F00003C081E080933802809138021F910F91C1
:10340000FF90EF900895982F80913A028823C1F49D
:10341000613039F0613050F0623029F0633041F4AE
:1034200004C0405C03C0405F01C0405B40933B026E
:1034300080913B02806880933B0281E080933A0256
:10344000892F60913B020E947718882319F010920F
:103450003A0281E00895CF92DF92EF92FF920F93AC
:103460001F93CF93DF93082FF62E90913502809112
:10347000BD01891709F433C1923009F494C0933027
:1034800030F4992371F0913009F029C128C09430AB
:1034900009F489C0943008F49DC0953009F01FC12B
:1034A00017C110923D02202F30E08DE090E0289F60
:1034B0008001299F100D389F100D112402541E4FBA
:1034C000F801818161E00E94EF15F801828160E0DE
:1034D0000E94EF15809135028093BD0177C0C02E08
:1034E000DD248DE090E0C89EE001C99ED00DD89EFD
:1034F000D00D1124C254DE4F8881882341F5062F58
:1035000010E0B80160717070B4E075956795BA9578
:10351000E1F788850E94EF15B80160727070A5E030
:1035200075956795AA95E1F789850E94EF15007456
:103530001070F6E015950795FA95E1F78A85602FEA
:103540000E94EF15FF1CFF24FF1C8B852AC08130D1
:1035500009F096C0062F10E0B80160717070E4E0C9
:1035600075956795EA95E1F78C810E94EF15B80192
:103570006072707055E0759567955A95E1F78D8189
:103580000E94EF150074107046E0159507954A9556
:10359000E1F78E81602F0E94EF15FF1CFF24FF1CB6
:1035A0008F816F2D6BC0202F30E08DE090E0289F41
:1035B000F001299FF00D389FF00D1124E254FE4FC9
:1035C000838160E00E94EF15809135028F5F8093C8
:1035D000350285C0C02EDD248DE090E0C89EE0015C
:1035E000C99ED00DD89ED00D1124C254DE4F8881C3
:1035F000882309F5617088850E94EF150F2D10E072
:10360000B801627070707595679589850E94EF1595
:10361000B8016470707075956795759567958A8522
:103620000E94EF150870107093E0159507959A9514
:10363000E1F78B8522C0813019F561708C810E9481
:10364000EF150F2D10E0B8016270707075956795D9
:103650008D810E94EF15B801647070707595679543
:10366000759567958E810E94EF1508701070A3E024
:1036700015950795AA95E1F78F81602F0E94EF15A8
:103680008DE090E0C89E8001C99E100DD89E100D5F
:10369000112402541E4FF801838161E00E94EF154E
:1036A000809135028093BD0183E080933702F80159
:1036B000848501E010E020E030E040E050E060E090
:1036C00070E0F8EAEF2EFBE1FF2E0E94670807C0CA
:1036D00081E080933D02109235029093BD0180916C
:1036E0003D02DF91CF911F910F91FF90EF90DF90FE
:1036F000CF900895982FFB0161157105B9F0809165
:103700003C02E80FF11D6081662361F0892F0E9461
:103710002B1A882359F080913C028F5F80933C02E2
:1037200080E0089510923C0281E0089580E00895C1
:10373000FF920F931F93F82E89010E94031A8F2D79
:10374000B8010E947A1B81E01F910F91FF900895AC
:1037500080913702813031F4809133028F5F809302
:1037600033021DC080913702823031F480913402DF
:103770008F5F8093340213C080913702833031F41D
:10378000809135028F5F8093350209C080913702A6
:10379000843029F4809136028F5F809336028091C5
:1037A000CA010E9438080895EF92FF921F93DF9399
:1037B000CF93CDB7DEB760970FB6F894DEBF0FBEDC
:1037C000CDBF182FCB017E010894E11CF11CB7017D
:1037D0004AE050E00E94D91F812FB7010E947A1B56
:1037E00060960FB6F894DEBF0FBECDBFCF91DF91CC
:1037F0001F91FF90EF900895EF92FF920F931F9308
:10380000CF93DF93082F109133028091BB01811772
:1038100009F4FFC0133009F4D3C0143038F4113068
:1038200009F495C0123008F0A0C00AC0153009F4A0
:10383000CDC0153008F4C7C0163009F0EAC0E4C0A6
:10384000E02EFF248DE090E0E89EE001E99ED00D9F
:10385000F89ED00D1124C254DE4F898113E0819F60
:10386000C001112487579E4F0E9493158A81819F22
:10387000C001112487579E4F0E9493158B81819F11
:10388000C001112487579E4F0E9493158881882379
:10389000D1F48885819FC001112487579E4F0E94D3
:1038A00093158985819FC001112487579E4F0E94DF
:1038B00093158A85819FC001112487579E4F0E94CE
:1038C00093158B851BC0813001F58C81819FC001D0
:1038D000112487579E4F0E9493158D81819FC001AF
:1038E000112487579E4F0E9493158E81819FC0019E
:1038F000112487579E4F0E9493158F81819FC0018D
:10390000112487579E4F0E94931580913302809314
:10391000BB0181E0809337028DE090E0E89EF001EA
:10392000E99EF00DF89EF00D1124E254FE4F8485BF
:1039300002E310E020E030E040E050E060E070E0C2
:10394000E8EAEE2EEBE1FE2E0E94670862C0802FAF
:1039500062E00E947718882309F45BC080913302EB
:103960008093BB01109337020EC0802F68E20E9443
:103970007718882309F44DC0809133028093BB01EE
:1039800081E080933702202F30E08DE090E0289F87
:10399000F001299FF00D389FF00D1124E254FE4FE5
:1039A000848507E210E020E030E040E050E060E095
:1039B00070E098EAE92E9BE1F92E0E943B0829C0AD
:1039C000802F6CE0D4CF802F66E0D1CF802F61E0D4
:1039D0000E9477188823E9F0809133028093BB011D
:1039E00081E080933702202F30E08DE090E0289F27
:1039F000F001299FF00D389FF00D1124E254FE4F85
:103A000084850AEF15E0CFCF81E080933E021093CA
:103A1000BB0180913E02DF91CF911F910F91FF90EA
:103A2000EF900895282F30E0F901E15CFD4F80818F
:103A3000813091F4F90183E0EE0FFF1F8A95E1F7E1
:103A4000E21BF30BE553FE4F8081813029F465368C
:103A500018F460934002089580E008950F931F9337
:103A6000282F30E0F901E15CFD4F8081813009F0C1
:103A700068C0643008F065C0662399F4890163E08A
:103A8000000F111F6A95E1F7021B130B05531E4F20
:103A9000F801838161E00E94EF15F801848160E004
:103AA0002AC0613099F4890153E0000F111F5A9523
:103AB000E1F7021B130B05531E4FF801838160E0F1
:103AC0000E94EF15F801848161E030C0C90143E034
:103AD000880F991F4A95E1F76230D9F48C01021BD7
:103AE000130B05531E4FF801838160E00E94EF1510
:103AF000F801848161E00E94EF15F801858161E0A1
:103B00000E94EF15F801868160E00E94EF1581E0C8
:103B100019C08C01021B130B05531E4FF801838142
:103B200061E00E94EF15F801848160E00E94EF15CA
:103B3000F801858160E00E94EF15F801868161E05F
:103B4000E4CF80E01F910F910895CF93DF93282F4A
:103B500030E0F901E15CFD4F8081813011F080E0BF
:103B60002FC0E901B3E0CC0FDD1FBA95E1F7C21B0E
:103B7000D30BC553DE4F88818823D9F4898190E027
:103B8000FC01EE0FFF1FE80FF91FE757FE4F808182
:103B900060E00E94EF158A8190E0FC01EE0FFF1FAC
:103BA000E80FF91FE757FE4F808160E00E94EF1594
:103BB00006C089810E94CF138A810E94CF1381E0C1
:103BC000DF91CF910895CF93DF93282F30E0F90153
:103BD000E15CFD4F8081813011F080E033C0E9016C
:103BE00043E0CC0FDD1F4A95E1F7C21BD30BC55351
:103BF000DE4F88818823D9F4898190E0FC01EE0FA3
:103C0000FF1FE80FF91FE757FE4F808161E00E9418
:103C1000EF158A8190E0FC01EE0FFF1FE80FF91FFE
:103C2000E757FE4F808161E00E94EF150AC089814D
:103C3000609140020E948E138A81609140020E942E
:103C40008E1381E0DF91CF910895CF92DF92FF92A2
:103C50000F931F93CF93DF93C82EDD24E601F3E08B
:103C6000CC0FDD1FFA95E1F7CC19DD09C553DE4F06
:103C70008881823010F080E05FC0882391F48981D0
:103C800013E0819FC001112487579E4F0E94931516
:103C90008A81819FC001112487579E4F0E949315EE
:103CA00014C0898190E0880F991F880F991F83584D
:103CB0009E4F0E94B0128A8190E0880F991F880F52
:103CC000991F83589E4F0E94B012860163E0000F37
:103CD000111F6A95E1F70C191D0905531E4FF801D4
:103CE000838153E0F52E8F9DC001112487579E4F8D
:103CF0000E949315F80184818F9DC001112487577C
:103D00009E4F0E949315F80185818F9DC00111245B
:103D100087579E4F0E949315F80186818F9DC001A1
:103D2000112487579E4F0E9493158FE392E0C80E8F
:103D3000D91E81E0F6018083DF91CF911F910F9111
:103D4000FF90DF90CF9008952091490230914A0270
:103D5000C9018D970B9718F480E063E005C02D3200
:103D6000310528F480E061E00E942E1D089528337B
:103D7000310510F480E0089580E060E00E942E1D7F
:103D8000089580E00E94251E813049F480E06EE1B4
:103D90000E94121D813019F480E00E94E31D0895F5
:103DA00080914B02813011F080E0089580E069E459
:103DB00072E00E94A816813011F410924B0208950F
:103DC00080E00E94421710924B0208951F93809149
:103DD0004102843089F0853011F1833059F480E05C
:103DE00061E040E00E94031A182F813019F584E049
:103DF0008093410210E01EC06091490270914A0216
:103E000080E00E94D41B182F8130A1F485E08093BC
:103E1000410280E00E941C1710934B02EBCF80E020
:103E200060E670E00E947A1B182F813019F483E05D
:103E300080934102812F1F9108958091410281302A
:103E400079F0813018F0823049F416C080E00E9489
:103E5000FC1B982F8130D9F48093410290E017C069
:103E600080E060E040E00E94031A982F813079F4EE
:103E700082E080934102F2CF80E06BE670E00E9426
:103E80007A1B982F813019F483E080934102892FA7
:103E900008950E941D1F0E94D01E0E94E61E0E94CF
:103EA000A41E08950E94C11E813029F40E94E01EC4
:103EB000813009F4789408950E94521F0E94491F8E
:103EC000FDCF629FD001739FF001829FE00DF11D35
:103ED000649FE00DF11D929FF00D839FF00D749F84
:103EE000F00D659FF00D9927729FB00DE11DF91F30
:103EF000639FB00DE11DF91FBD01CF01112408958D
:103F0000A1E21A2EAA1BBB1BFD010DC0AA1FBB1FDD
:103F1000EE1FFF1FA217B307E407F50720F0A21B4F
:103F2000B30BE40BF50B661F771F881F991F1A94BC
:103F300069F760957095809590959B01AC01BD01E6
:103F4000CF0108952F923F924F925F926F927F928E
:103F50008F929F92AF92BF92CF92DF92EF92FF9299
:103F60000F931F93CF93DF93CDB7DEB7CA1BDB0B45
:103F70000FB6F894DEBF0FBECDBF09942A883988EA
:103F800048885F846E847D848C849B84AA84B984F1
:103F9000C884DF80EE80FD800C811B81AA81B981FD
:103FA000CE0FD11D0FB6F894DEBF0FBECDBFED0111
:103FB0000895FB019F01E8944230C4F04532B4F407
:103FC0004A3029F497FB1EF4909581959F4F642FFA
:103FD00077270E940A20805D8A330CF0895D8193E7
:103FE000CB010097A1F716F45DE251931082C9014D
:103FF0000C94FA1FDC01FC01672F71917723E1F724
:10400000329704C07C916D9370836291AE17BF07A5
:10401000C8F30895AA1BBB1B51E107C0AA1FBB1F11
:10402000A617B70710F0A61BB70B881F991F5A9544
:10403000A9F780959095BC01CD010895F894FFCF24
:10404000202020202020202020200044697374613B
:104050006E63653A000001020203030303040404D3
:104060000404040404050505050505050505050505
:1040700005050505050606060606060606060606E5
:1040800006060606060606060606060606060606D0
:1040900006060606060707070707070707070707B5
:1040A00007070707070707070707070707070707A0
:1040B0000707070707070707070707070707070790
:1040C0000707070707070707070707070707070780
:1040D0000707070707080808080808080808080865
:1040E0000808080808080808080808080808080850
:1040F0000808080808080808080808080808080840
:10410000080808080808080808080808080808082F
:10411000080808080808080808080808080808081F
:10412000080808080808080808080808080808080F
:1041300008080808080808080808080808080808FF
:1041400008080808080808080808080808080808EF
:1041500008080808080000000201000102010E0220
:1041600002020E0202020200001A01001B01001EE0
:1041700001001F01001001000A00000101000201FE
:104180000003010004010005010006010007010011
:1041900000040502000111271400000605050006B1
:1041A000070800000000090A0B0C000100010001D3
:0641B00002033B3835322A
:00000001FF
